:020000040800F2
:100000000808002089010008E1010008E10100085A
:10001000E1010008E1010008E10100080000000022
:10002000000000000000000000000000E1010008E6
:10003000E101000800000000E1010008E101000802
:10004000E1010008E1010008E1010008E101000808
:10005000E1010008E1010008E1010008E1010008F8
:10006000E1010008E1010008E1010008E1010008E8
:10007000E1010008E1010008E1010008E1010008D8
:10008000E1010008E1010008E1010008E1010008C8
:10009000E1010008E1010008E1010008E1010008B8
:1000A000E1010008E1010008E1010008E1010008A8
:1000B00095030008E1010008E1010008E1010008E2
:1000C000E1010008E1010008E1010008E101000888
:1000D000E1010008E1010008E1010008E101000878
:1000E000E1010008E1010008E1010008E101000868
:1000F000E1010008E1010008E1010008E101000858
:10010000E1010008E1010008E1010008E101000847
:10011000E1010008E1010008E1010008E101000837
:10012000E1010008E1010008E1010008E101000827
:10013000E1010008E1010008E1010008E101000817
:10014000E1010008E1010008E1010008E101000807
:10015000E1010008E1010008E1010008E1010008F7
:10016000E1010008E1010008E1010008E1010008E7
:10017000E1010008E1010008E1010008E1010008D7
:10018000E1010008E101000880B582B000AF0F4B2B
:100190007B600F4B3B6007E03B681A1D3A607A6852
:1001A000111D796012681A603B680A4A9342F3D3C2
:1001B00009480A494FF000028842B8BF40F8042BB2
:1001C000FADB00F0CFF80837BD4680BDFC1D000803
:1001D000000000200000002000000020040000209B
:1001E00080B400AFFEE700BF80B500AF032001215F
:1001F00000F024F90720012100F002F980BD00BFC2
:1002000080B582B000AF4FF4E06000F037FA1C23F5
:100210003B7100237B710123BB710123FB713B1DEB
:10022000184600F03DFA1D233B7100237B7101232A
:10023000BB710123FB713B1D184600F031FA0837F2
:10024000BD4680BD80B582B000AF20233B60022355
:100250003B710023BB710023FB7103237B713B4681
:100260001A48194600F008F918480521012200F043
:10027000B9F908233B6002233B710023BB710023C3
:10028000FB7103237B713B461148194600F0F4F8DB
:100290000F480321012200F0A5F94FF400533B6001
:1002A00000233B7102237B710023BB710023FB7190
:1002B0003B460848194600F0DFF806484FF4005165
:1002C00000F082F90837BD4680BD00BF0000024043
:1002D000000402400008024080B588B000AF0F2340
:1002E0003B8044F61F637B6000233B8100237B80BF
:1002F0003B464FF08040194600F032FA4FF0804004
:10030000012100F097FA6023BB810123FB8140F2B9
:10031000DC537B6100237B8307F10C034FF08040AB
:10032000194600F0C7FA07F10C034FF08040194658
:1003300000F03AFB4FF08040082100F0D9FB4FF06D
:100340008040082100F0F0FB4FF0804001210122A5
:1003500000F008FC4FF08040012100F08BFA2037BC
:10036000BD4680BD80B500AFFFF73EFFFFF76AFFD7
:10037000FFF746FFFFF7B0FF04484FF4005100F0CD
:1003800009F903461A46024B1A60F5E700080240D5
:100390000000002080B582B000AF4FF08040012106
:1003A00000F004FC0346002B14BF01230023DBB242
:1003B000002B20D04FF08040012100F021FC40F2C2
:1003C000DC537B6040F2DC533B600C4B1B68002B22
:1003D00005D140F20E637B6040F272633B607B6844
:1003E0004FF08040194600F067FB3B684FF08040BB
:1003F000194600F06FFB0837BD4680BD00000020A5
:1004000080B483B000AF78600B46FB70FB78002BA4
:1004100006D00949084B1A6B7B6813430B6306E04F
:100420000549054B1A6B7B68DB4313400B630C37A4
:10043000BD465DF8047B70470038024080B483B04D
:1004400000AF78600B46FB70FB78002B06D00949A3
:10045000084B1A6C7B6813430B6406E00549054B97
:100460001A6C7B68DB4313400B640C37BD465DF8A8
:10047000047B70470038024080B487B000AF7860DA
:10048000396000237B6100233B610023FB60002374
:100490007B6176E07B69012202FA03F33B613B68F2
:1004A0001A683B691340FB60FA683B699A4265D160
:1004B0007B681A687B695B00194603238B40DB432A
:1004C0001A407B681A607B681A683B681B7919467A
:1004D0007B695B0001FA03F31A437B681A603B688F
:1004E0001B79012B03D03B681B79022B2ED17B6833
:1004F0009A687B695B00194603238B40DB431A40F3
:100500007B689A607B689A683B685B7919467B696F
:100510005B0001FA03F31A437B689A607B685A68B0
:100520007B699BB2194601238B40DB431A407B68F1
:100530005A607B685B683A68927911467A6992B230
:1005400001FA02F292B21A437B685A607B68DA6859
:100550007B699BB25B00032101FA03F3DB431A4082
:100560007B68DA607B68DA683B68DB7919467B690F
:100570005B0001FA03F31A437B68DA607B6901339D
:100580007B617B690F2B85D91C37BD465DF8047BE9
:10059000704700BF80B485B000AF78600B467B80A9
:1005A0000023FB737B681A697B881340002B02D001
:1005B0000123FB7301E00023FB73FB7B1846143718
:1005C000BD465DF8047B704780B483B000AF7860AF
:1005D0000B467B807B687A885A830C37BD465DF872
:1005E000047B704780B485B000AF78600B467B8099
:1005F00013467B700023FB600023BB607B787A8806
:1006000002F0070292009340FB607B88DB089BB2FC
:1006100018467B88DB089BB21A467B68083253F881
:1006200022207B8803F007039B0019460F238B4091
:10063000DB4302EA03017B6800F1080243F8221061
:100640007B88DB089BB21A467B68083253F822206D
:10065000FB681343BB607B88DB089BB21A467B6850
:100660000832B96843F822101437BD465DF8047BA0
:10067000704700BF80B400AFFEE700BF80B483B016
:1006800000AF7860054A7B6843F0BF6343F40033F2
:10069000D3600C37BD465DF8047B704700ED00E089
:1006A00080B485B000AF78600023FB730023BB7378
:1006B0000F237B737B68DB78002B38D0264BDB68FD
:1006C000DB4303F4E0631B0AFB73FB7BC3F104030E
:1006D000BB737A7BFB7B42FA03F37B737B685B78AB
:1006E0001A46BB7B02FA03F3FB737B689A787B7B29
:1006F0001340DAB2FB7B1343FB73FB7B1B01FB73E1
:10070000164A7B681B781344FA7B83F80023134A4C
:100710007B681B785B09DBB218467B681B7803F0AB
:100720001F03012101FA03F342F820300FE00B49C7
:100730007B681B785B09DBB218467B681B7803F08B
:100740001F0301229A4000F1200341F823201437AF
:10075000BD465DF8047B704700ED00E000E100E07D
:1007600080B485B000AF786039600023FB817B687E
:100770001B88FB817B68284A934213D07B68274AF9
:1007800093420FD07B68B3F1804F0BD07B68244A33
:10079000934207D07B68234A934203D07B68224A66
:1007A000934208D1FB8923F07003FB813B685A8890
:1007B000FB891343FB817B681C4A93420CD07B6806
:1007C0001B4A934208D0FB8923F44073FB813B68AA
:1007D0001A89FB891343FB817B68FA891A803B687D
:1007E0005A687B68DA623B681A887B681A857B687E
:1007F000094A934203D07B68084A934204D13B687C
:100800009B7A9AB27B681A867B6801229A82143797
:10081000BD465DF8047B70470000014000040140C4
:100820000004004000080040000C004000100040A0
:100830000014004080B483B000AF78600B46FB70BA
:10084000FB78002B08D07B681B889BB243F08003A9
:100850009AB27B681A8007E07B681B889BB223F002
:1008600080039AB27B681A800C37BD465DF8047B22
:10087000704700BF80B483B000AF78600B46FB7058
:10088000FB78002B08D07B681B889BB243F00103E8
:100890009AB27B681A8007E07B681B889BB223F0C2
:1008A00001039AB27B681A800C37BD465DF8047B61
:1008B000704700BF80B485B000AF78603960002316
:1008C0007B810023FB810023BB817B681B8C9BB257
:1008D00023F001039AB27B681A847B681B8CFB812E
:1008E0007B689B88BB817B681B8B7B817B8923F02A
:1008F00070037B817B8923F003037B813B681A882B
:100900007B8913437B81FB8923F00203FB813B68D6
:100910009A89FB891343FB813B685A88FB891343FF
:10092000FB817B681E4A934203D07B681D4A934239
:1009300023D1FB8923F00803FB813B68DA89FB891B
:100940001343FB81FB8923F00403FB813B689A88F6
:10095000FB891343FB81BB8923F48073BB81BB8973
:1009600023F40073BB813B681A8ABB891343BB81A4
:100970003B685A8ABB891343BB817B68BA899A80DA
:100980007B687A891A833B689A687B685A637B68BC
:10099000FA891A841437BD465DF8047B704700BF9E
:1009A000000001400004014080B485B000AF7860D1
:1009B000396000237B810023FB810023BB817B689E
:1009C0001B8C9BB223F010039AB27B681A847B685D
:1009D0001B8CFB817B689B88BB817B681B8B7B812D
:1009E0007B8923F4E0437B817B8923F440737B8103
:1009F0003B681B881B029AB27B8913437B81FB896E
:100A000023F02003FB813B689B891B019AB2FB8981
:100A10001343FB813B685B881B019AB2FB8913433C
:100A2000FB817B68224A934203D07B68214A934230
:100A30002BD1FB8923F08003FB813B68DB891B0101
:100A40009AB2FB891343FB81FB8923F04003FB81AE
:100A50003B689B881B019AB2FB891343FB81BB89CE
:100A600023F48063BB81BB8923F40063BB813B68B3
:100A70001B8A9B009AB2BB891343BB813B685B8A8C
:100A80009B009AB2BB891343BB817B68BA899A8069
:100A90007B687A891A833B689A687B689A637B686B
:100AA000FA891A841437BD465DF8047B704700BF8D
:100AB000000001400004014080B483B000AF7860C2
:100AC00039607B683A685A630C37BD465DF8047B31
:100AD000704700BF80B483B000AF786039607B6836
:100AE0003A689A630C37BD465DF8047B704700BFD7
:100AF00080B485B000AF78600B467B800023FB811B
:100B00007B681B8BFB81FB8923F00803FB81FA893F
:100B10007B881343FB817B68FA891A831437BD46AF
:100B20005DF8047B704700BF80B485B000AF78608B
:100B30000B467B800023FB817B681B8BFB81FB8941
:100B400023F40063FB817B881B029AB2FB89134369
:100B5000FB817B68FA891A831437BD465DF8047BF4
:100B6000704700BF80B483B000AF78600B467B80D5
:100B700013467B707B78002B08D07B689B899AB2E8
:100B80007B8813439AB27B689A8109E07B689B89D2
:100B90009AB27B88DB439BB213409AB27B689A81FE
:100BA0000C37BD465DF8047B704700BF80B485B04C
:100BB00000AF78600B467B800023FB730023BB8172
:100BC00000237B817B681B8A9AB27B881340BB81A0
:100BD0007B689B899AB27B8813407B81BB89002B01
:100BE00005D07B89002B02D00123FB7301E0002399
:100BF000FB73FB7B18461437BD465DF8047B7047DA
:100C000080B483B000AF78600B467B807B88DB4389
:100C10009AB27B681A820C37BD465DF8047B704738
:100C200003685A004CBF43F0004323F000431844CC
:100C3000704700BF2DE9F04F83B099B34B1E1746A4
:100C4000054601939846002606EB080404EBD4748D
:100C500064104FEAC40A05EB0A0B5846FFF7E0FFA1
:100C6000019B8146A3420AF1080028440ED0FFF7F9
:100C7000D7FFB94500F1FF3004D9B4420CD004F1DC
:100C8000FF38E1E7B84203D2661CDDE7B945F4D886
:100C9000584603B0BDE8F08F4FF0000B584603B044
:100CA000BDE8F08F8B46584603B0BDE8F08F00BF1B
:100CB000012807D0022807D0044B00280CBF184693
:100CC000002070470248704702487047BD13000873
:100CD000C1130008C513000830B5244B83B0044687
:100CE0008D1E7BB3284601A9AFF3008020B3019984
:100CF0002A46FFF79FFF0546F0B1FFF791FF6B68AB
:100D0000A064012B12D0002B05F1040020DBFFF7BB
:100D100087FF0023E06423650368002B1CDBFFF7DB
:100D20007FFF00232061184603B030BD00232361FC
:100D30000523184603B030BD00232361092318465C
:100D400003B030BD0A490B48091AC9100191CFE719
:100D50000123E0642365DFE7C3F30360FFF7A8FF27
:100D6000002820610CBF09230023DCE700000000FD
:100D7000FC1D0008141D00080368DA0710B50446BE
:100D800006D49B0700F1480009D500F085FC2368D4
:100D9000590709D51A070ED5DB0613D510BD00F08B
:100DA00073FC23685907F5D404F1D00000F07CFCF3
:100DB00023681A07F0D404F5A87000F07DFC2368BE
:100DC000DB06EBD404F5E870BDE8104000F0B8BCD9
:100DD00003680BB1184470471846704709207047E4
:100DE000704700BF70B504460D4608E02B6C636188
:100DF0000120236921462A469847082808D1204621
:100E0000296CFFF769FF06460028EFD0FFF732FC98
:100E10000728FBD13046296CFFF7E2FF281D00F0C0
:100E200027FC00BF2DE9F0470C1D064617460FCCE6
:100E3000ADF5727D03AD0FC50FCC0FC50FCC0FC53F
:100E400094E80F0002AC4FF0000ED6F80C80D6F8F4
:100E5000189085E80F003046216CC4F800E0FFF7D9
:100E60003BFF002F05460CBF09270A277DB1A36B66
:100E700047F010018DE810020120636432463346CA
:100E8000C04778BB28460DF5727DBDE8F087236C1E
:100E9000736121464FF4F0727AA800F07DFE336949
:100EA00031467AAA38469847889B82468DE81002D8
:100EB00039466364012032463346C04790B9204624
:100EC0007AA94FF4F07200F067FEBAF1080F06D16C
:100ED0003046216CFFF700FF09270546C6E7BAF147
:100EE000070F04D009200DF5727DBDE8F087284674
:100EF000216CFFF775FF03A800F0BAFB406C704748
:100F0000F0B5CB6B0B640E1D0F4604460FCEF9B047
:100F100001AD0FC50FCE0FC50FCE0FC596E80F0060
:100F20004FF0FF3685E80F00009606E02369214662
:100F30006A4698470828054608D120461099FFF7C9
:100F4000CBFE0028F2D0092079B0F0BD6846FFF74B
:100F500013FF062DF7D120463946FFF743FF00BFA8
:100F600030B4DD6BC160826119461D64002230BC63
:100F700058E700BF70B5C66843690B6404460D4668
:100F800026B10122FFF74EFFFFF774FB03692146EC
:100F900002202A469847072807D0082803D1204670
:100FA0002946FFF71FFFFFF765FB3046296CFFF767
:100FB00017FF281D00F05CFBC2681AB1CA6B0A64F7
:100FC00000222FE79CE700BF704700BF836813B182
:100FD000014601201847704700B5042907D8DFE80B
:100FE00001F00309060909000BB90F2A05D90220EF
:100FF0005DF804FB01205DF804FB00EB820218465B
:101000005368019A13605DF804FB00BF00B585B01A
:101010000A4603AB002100930B46FFF7DDFF039860
:1010200005B05DF804FB00BF00B5042907D8DFE870
:1010300001F00309060909000BB90F2A05D902209E
:101040005DF804FB01205DF804FB019900EB8202CE
:101050000968516018465DF804FB00BF10B584B004
:1010600004AB0C4643F8042D0021009322460B46A6
:10107000FFF7DAFF04B010BDF0B5D36B1364151D94
:1010800007460E460FCDADF50F7D17AC0FC40FCD43
:101090000FC40FCD0FC495E80F004FF0FF3584E863
:1010A0000F00169510E016A8FFF7D8FF314616A8D6
:1010B000B847694616AA78B9049B082098470528BE
:1010C00004460AD0092807D026996846FFF704FE8F
:1010D0006A460C210028E6D0092416A8FFF74CFE2A
:1010E00020460DF50F7DF0BD2DE9F04F0D46C96C82
:1010F0008BB00C1D096807919046089400F0030915
:101100001E46002B64D10902032307918DF8256048
:101110008DF824302B6DB9F1020F08BFAC6B13F0C2
:10112000010343D100F00800C2B203920193276883
:10113000002F3DD0022E47D02788B4F802A00434F7
:10114000AB6C2AF0010B40460F219B44FFF75EFF7A
:10115000834537D827F001039B4458452CBF002016
:1011600001200AF0010A07F0010747EA4A0ABAF12A
:10117000010F43D03AD3BAF1020F1FD1236823F0F5
:1011800000420292B9F1000F7BD138B1039A002AD4
:1011900000F08380029A002A00F0A680002B7ADB00
:1011A000029B03F1010A04EB8A04C0E700230193C8
:1011B000022E40DDFFF712FE002842D009200BB0BE
:1011C000BDE8F08F0020CCE7D4F804A00834B7E7DE
:1011D000022B9FDC0B0CDFB2090402228DF82530B4
:1011E00004EB870407918DF8242093E7B9F1000FF1
:1011F00002D0002840F0AD80043498E7B9F1000F28
:1012000026D1B0B194E80C00D70F9A1CD6D005F1C6
:1012100058020133069200F09280201DFFF7D8FD9E
:101220003A46014606AB2846AFF30080002840F05E
:10123000B58008347BE7404607A900F01BFB002877
:10124000BCD1019B002B59D108200BB0BDE8F08F19
:1012500040460D212F6AFFF7D9FE8742E9D1AB6ADC
:101260009C42E6D12046FFF7DBFC0F2102464046B8
:10127000FFF7F4FE40462A460021FFF7EFFE072065
:101280009DE740460D212F6AFFF7C0FE874245D0FB
:101290002368002B84DA043482E7029B23B305F130
:1012A0005803059604F1040A039FDDF808B0CDF851
:1012B00010901E4602E0D9454F4615D0504606967E
:1012C000FFF786FD0022014606AB2846AFF30080FB
:1012D00007F101090AF1040A0028ECD0029BDDF8AD
:1012E0001090059E9F42D3D140460D21FFF78EFE00
:1012F000069B2862AC626B62062060E70F214046C5
:10130000FFF784FE0E2102464046FFF7A7FE404647
:101310000F21294AFFF7A2FE072050E7AB6A9C4243
:10132000B6D104220027A3180299A962EF622A63AA
:101330006B632368BB421FDB0123019330E7404608
:101340000D21FFF763FE2862069B6B62AC620620EC
:1013500035E72046FFF764FC04340646AC632846B4
:10136000AFF3008000283FF429AF404632460F21FA
:10137000FFF774FE072022E70846013004EB8000E7
:10138000FFF74EFC0F2102464046FFF767FE40463E
:1013900039462A46FFF762FE072010E707460D216F
:1013A0004046FFF733FE022F2862CDD12B46069A26
:1013B00043F82C2F6B62C9E700000000002393E67E
:1013C000012391E602238FE6F0B50546C5B0042956
:1013D0000CD8DFE801F056030B300E00012B4FEA6A
:1013E000124496B265D0052B00F08480022045B0EF
:1013F000F0BD002BFAD1102AF8D82B68DC0600F1DA
:10140000EB8022AE3046019200F0A4F9A86B019A5D
:101410000023012404FA03F1114203D0016846F8C5
:10142000231004300133042BF4D1A863304600F0BC
:1014300087F90020DBE7032BD8D1140C97B23B19B6
:10144000102BD3D82B681E0700F1E68022AE304661
:101450007F0000F053F906EBC4027B1EAC6B57B162
:10146000043A214651F8040B42F8040F013B581C82
:10147000F8D104EB87043046AC6300F01DF900207E
:10148000B5E7002BB2D1AC6B97B2281D012606FA46
:1014900003F1394203F1010302D0216801600434F1
:1014A000102B00F10400F2D112F4005020D1AC63F3
:1014B0009DE73219102A99D80F2C97D82968C807A8
:1014C0004FF0000755D422A8019300F0E1F8019BEA
:1014D00019E008463746012B00F098800F2CA863CE
:1014E00002D822A800F0D8F817B102A800F0DCF862
:1014F00000207CE73719202F3FF678AF0F2C30D92A
:101500003746002E45D1A96B3246002EE1D0002788
:1015100044A84FEA420C00EBC4000CF1FF328C38B7
:101520008E465EF8046B40F8046F013A561CF8D101
:1015300001EB8C00002FCED0102C224644A938BFDE
:10154000102201EBC202A2F5C47201467800043AEF
:1015500001EB800051F8046B42F8046F8142F9D12D
:10156000B9E7102F42D92A68D007A7F11007114612
:1015700010D521F00102052B2A60019328465BD08B
:1015800021F0030140F8481B00F082F8019B002F76
:101590004AD02A6851075BD4012B63D00F2C04D8A2
:1015A00022A8019300F07CF8019B002FABD002A889
:1015B000019300F07DF8019BA96BC4F11002002A91
:1015C000A6DC102C224644A838BF102200EBC20231
:1015D000A2F5C4727800BAE723F010032B6005F57A
:1015E000E870019200F0B6F8019A0AE72968C80786
:1015F0001DD521F00102284642F0020240F8482B96
:101600000193002700F04CF8019BC9E70430A86360
:1016100022A800F039F86BE723F008032B6005F5EA
:10162000A87000F06BF811E7012B3FF44CAF0F2CC2
:1016300098BF0027B4D966E742F0020240F8482B71
:1016400000F02EF8019B002FAAD02A685107A5D5DB
:10165000284622F0040240F8D02B019300F028F82D
:10166000019B99E722A8019300F012F8019BA3E7E0
:1016700000F1340191E838009C46A6464CF8045D20
:1016800090E8FF0FE54600BD90EC210B704700BFCE
:1016900080EC210B704700BF90EC200B704700BF1F
:1016A00080EC200B704700BFD0EC200B704700BFD0
:1016B000C0EC200B704700BFF0EC0201F0EC02110F
:1016C000F0EC0221F0EC0231F0EC0241F0EC0251BE
:1016D000F0EC0261F0EC0271F0EC0281F0EC0291AE
:1016E000F0EC02A1F0EC02B1F0EC02C1F0EC02D19E
:1016F000F0EC02E1F0EC02F1704700BFE0EC020117
:10170000E0EC0211E0EC0221E0EC0231E0EC0241FD
:10171000E0EC0251E0EC0261E0EC0271E0EC0281ED
:10172000E0EC0291E0EC02A1E0EC02B1E0EC02C1DD
:10173000E0EC02D1E0EC02E1E0EC02F1704700BF26
:10174000B0FC0181B0FC0191B0FC01A1B0FC01B181
:10175000704700BFA0FC0181A0FC0191A0FC01A189
:10176000A0FC01B1704700BFEC4600B52DE9005068
:101770002DE9FF1F4FF000032DE90C0001A9FFF731
:10178000BFFBDDF840E012B0704700BFEC4600B58B
:101790002DE900502DE9FF1F4FF000032DE90C004B
:1017A00001A9FFF7E7FBDDF840E012B0704700BF8A
:1017B000EC4600B52DE900502DE9FF1F4FF0000366
:1017C0002DE90C0001A9FFF7F7FBDDF840E012B0AE
:1017D000704700BFEC4600B52DE900502DE9FF1F12
:1017E0004FF000032DE90C0001ABFFF7B9FBDDF86A
:1017F00040E012B0704700BFEC4600B52DE9005044
:101800002DE9FF1F4FF000032DE90C0001AAFFF79F
:1018100033FCDDF840E012B0704700BF037A1BB91B
:10182000437A43B9B02070475A1E036802721A0205
:101830000260180E70474268013B10B4437213688F
:101840000321141D01721A02446002605DF8044B0A
:10185000180E704700B585B003AB002100930C2231
:101860000B46FFF7B9FB039805B05DF804FB00BF1A
:10187000F0E700BF2DE9F043064685B00D464FF076
:1018800000082846FFF7CAFFB028044600F0B580DC
:1018900020F07F0111F0FF0120D000F0F003802B39
:1018A0007AD0902B36D0A02B49D0B02B5CD0C02B57
:1018B00000F0898000F0F803D02B0BD100F0070274
:1018C000013242F40022304601210523FFF77CFD5E
:1018D0000028D6D0092005B0BDE8F0830DF10C0931
:1018E0000B468700CDF8009030460D22FFF774FBC1
:1018F000FFB2039BCDF80090043760064FF0000163
:101900004CBFDF1BFF1830460B460D220397FFF735
:101910008BFBB6E700F00D030D2BDBD003AF0021EE
:1019200000F00F020B4600973046FFF755FB0021F1
:1019300000970B4630460D22FFF776FBA1E7C34325
:1019400003F007034FF47F621A41010702F47F623C
:101950004FF0000148BF42F480420B463046FFF78B
:1019600033FD0028B6D18CE7B1284CD0B2285DD029
:10197000B32800F08A8000F0FC03B42BAAD000F05A
:1019800007020132012142F400220B463046FFF7E4
:101990001BFD00289ED174E72846FFF73FFF240275
:1019A0002043B0F5004F95D004010021A2B20B46B0
:1019B0003046FFF709FD00288CD114F4004F18BF02
:1019C0004FF001085DE7C62872D0C7287AD000F032
:1019D000F803C02B00F08980C82800F0A580C92832
:1019E0007FF478AF2846FFF719FF00F00F020132AD
:1019F00000F0F00042EA003265E7B8F1000F00F0B5
:101A00008280002067E72846FFF708FF024600288B
:101A10003FF460AF10F0F0017FF45CAF30460B464E
:101A2000FFF7D2FC00287FF455AF2AE700210DF123
:101A30000C090D220B46CDF800903046FFF7CCFA8A
:101A40002846FFF7EBFE02064FF002040CD5039B7D
:101A500000F07F00A040034428460393FFF7DEFE1A
:101A6000030604F10704F2D4039BCDF8009000F0C4
:101A70007F00A04003F5017300211C180D220B46C6
:101A800030460394FFF7D0FAFBE62846FFF7C6FE80
:101A900000F00F02013200F0F000012142EA0032B2
:101AA0000B463046FFF790FC00287FF413AFE8E6C2
:101AB0002846FFF7B3FE00F00F02013200F0F000FD
:101AC0000321EBE72846FFF7A9FE024600283FF472
:101AD00001AF10F0F0037FF4FDAE30460421FFF7B4
:101AE00073FC00287FF4F6AECBE600F00F02013263
:101AF000032142F420220B463046FFF765FC002804
:101B00007FF4E8AEBDE603AC41460E2243460094A6
:101B10003046FFF761FA0094304641460F224346B3
:101B2000FFF782FA4046D6E62846FFF777FE00F038
:101B3000F00200F00F031032013343EA0232C2E632
:101B400010B5C36C84B05A6803208DF80C00DC79A2
:101B50008DF80D4012020833084601A90192029344
:101B6000FFF788FE04B010BD08B5FFF781FE806C5A
:101B700008BD00BF08B5FFF77BFEC36CD87903EB47
:101B80008000083008BD00BF08B5FEF773FD00BF38
:101B900008B5FEF76FFD00BF844641EA000313F06D
:101BA00003036DD1403A41D351F8043B40F8043B64
:101BB00051F8043B40F8043B51F8043B40F8043B27
:101BC00051F8043B40F8043B51F8043B40F8043B17
:101BD00051F8043B40F8043B51F8043B40F8043B07
:101BE00051F8043B40F8043B51F8043B40F8043BF7
:101BF00051F8043B40F8043B51F8043B40F8043BE7
:101C000051F8043B40F8043B51F8043B40F8043BD6
:101C100051F8043B40F8043B51F8043B40F8043BC6
:101C200051F8043B40F8043B403ABDD2303211D366
:101C300051F8043B40F8043B51F8043B40F8043BA6
:101C400051F8043B40F8043B51F8043B40F8043B96
:101C5000103AEDD20C3205D351F8043B40F8043B66
:101C6000043AF9D2043208D0D2071CBF11F8013B64
:101C700000F8013B01D30B8803806046704700BF2A
:101C8000082A13D38B078DD010F003038AD0C3F139
:101C90000403D21ADB071CBF11F8013B00F8013B1B
:101CA00080D331F8023B20F8023B7BE7043AD9D3DA
:101CB000013A11F8013B00F8013BF9D20B780370AF
:0C1CC0004B7843708B788370604670474F
:101CCC0001970181B0B008840000000001970181E8
:101CDC00B0B008840000000007970181B0B0088400
:101CEC000000000001970181B0B0088400000000E2
:101CFC0008B10181B0B000840000000008B101817E
:081D0C00B0B0008400000000EB
:101D1400D4E4FF7F08849780E4E4FF7FACFFFF7F77
:101D240020E5FF7FB0FFFF7FACE5FF7FB4FFFF7FBF
:101D340030E6FF7F0884978058E6FF7FB0FFFF7F7F
:101D4400BCE6FF7F010000008CEFFF7FB0A902809A
:101D540024F0FF7FB0B0A88074F0FF7F0100000082
:101D640080F0FF7FB0B0AA80B8F0FF7FAE71B28080
:101D740088F1FF7F0100000084F1FF7FAB3F3880D2
:101D8400DCF1FF7F01000000E8F1FF7FB0B0AA8022
:101D940024F2FF7F01000000DCF2FF7FAB0EB28073
:101DA40044F3FF7FB0AF0A8010F6FF7F010000000C
:101DB40014F6FF7FAB3F0480B4F8FF7F01000000FE
:101DC40090FAFF7F00840480A4FAFF7F01000000E2
:101DD400A0FAFF7FB0AD048064FDFF7FB0A803804C
:101DE40084FDFF7F14FFFF7F88FDFF7F18FFFF7FC7
:081DF40094FDFF7F01000000D7
:0400000508000000EF
:00000001FF
