:020000040800F2
:100000000080012031040008610400086304000836
:100010006504000867040008690400080000000087
:100020000000000000000000000000006B04000859
:100030006D040008000000006F040008710400084F
:1000400073040008730400087304000873040008B4
:1000500073040008730400087304000873040008A4
:100060007304000873040008730400087304000894
:100070007304000873040008730400087304000884
:1000800073040008730400087304000800000000F3
:1000900000000000000000000000000073040008E1
:1000A0007304000873040008730400087304000854
:1000B0007304000873040008730400087304000844
:1000C0007304000873040008730400087304000834
:1000D00073040008730400087304000800000000A3
:1000E0007304000873040008730400080000000093
:1000F0000000000000000000000000007304000881
:100100000000000073040008730400087304000872
:1001100000000000000000000000000000000000DF
:1001200073040008730400087304000873040008D3
:100130007304000800000000000000000000000040
:100140000000000000000000000000007304000830
:1001500073040008730400087304000873040008A3
:100160007304000873040008000000000000000091
:10017000000000000000000000000000000000007F
:1001800000000000730400087304000810B5054C5B
:10019000237833B9044B13B10448AFF30080012333
:1001A000237010BD2002002000000000684C0008F1
:1001B000084B10B51BB108480849AFF30080084848
:1001C000036803B910BD074B002BFBD0BDE81040FE
:1001D000184700BF00000000684C000824020020FF
:1001E0001C02002000000000154B002B08BF134B21
:1001F0009D46A3F5803A00218B460F461348144ACA
:10020000121A03F094F90F4B002B00D098470E4BB5
:10021000002B00D098470020002104000D000D485D
:10022000002802D00C48AFF3008003F015F920003D
:10023000290000F0DDF802F0F3FA00BF000008002A
:1002400000800120000000000000000020020020CB
:10025000540600200000000000000000044B186855
:1002600000B1704703480221032202F01BB900BF0E
:10027000A004002034060020022808B50BDDC21EB1
:10028000074B53F82200002143F8221028B10268DE
:100290005368984708BD002008BD4FF0FF3008BDE7
:1002A0003C0200200228F8B50D46174628DC1D49FF
:1002B0000A68002A2DD00FB32C46EE1914F8011B42
:1002C0001948ED43AB1903F0010502F0FDF9B44202
:1002D00014D035B114F8011B134802F0F5F9B442FB
:1002E0000CD02546104815F8011B02F0EDF9617895
:1002F0000D486C1C02F0E8F9B442F2D13846F8BD62
:1003000003380A4B53F8200040B103681B68984734
:10031000F8BDFFF7A3FF002FCED1EFE74FF0FF307E
:10032000F8BD00BFA0040020340600203C020020DD
:10033000022810B50C4609DC0D4A106888B10D483A
:1003400002F0B6F901212070084610BD03380A4BAF
:1003500053F8200040B103689B689847014608465F
:1003600010BDFFF77BFFEAE74FF0FF31ECE700BF7E
:10037000A0040020340600203C020020022808B51A
:1003800008DD0338064B53F8200028B10168CA681D
:10039000904708BD012008BD4FF0FF3008BD00BFE9
:1003A0003C020020022808B508DD0338064B53F84C
:1003B000200028B103681B69984708BD002008BDCC
:1003C0004FF0FF3008BD00BF3C020020022808B5F6
:1003D00004D84FF400504860002008BD02F09CFE95
:1003E000092303604FF0FF3008BD00BF704700BF16
:1003F00008B500F087FEFFF7F9FFBDE8084001F0FF
:1004000023BE00BF084A13681818EFF3088188421A
:1004100002D2106018467047044B0C221A604FF04D
:10042000FF331846704700BF980100205006002097
:100430000649074A074B9A42BEBF51F8040B42F8DF
:10044000040BF8E70448804704480047744C000850
:100450009401002020020020D5150008E9010008C1
:10046000FEE7FEE7FEE7FEE7FEE7FEE7FEE7FEE764
:10047000FEE7FEE74FF46D43CEF200034FF6FF02B6
:10048000D9680A4042F0BF6242F4003100F0070030
:1004900041EA0022DA607047704700BFF8B50446B1
:1004A000002800F0858090F83D30002B7DD04FF47F
:1004B0000C52C4F20102022084F83D005168236806
:1004C00021F4403555605668676846EA0700506079
:1004D0005F682669A568E068216BE26A27F4807787
:1004E0005F605F6847EA06265E605E6826F04076D9
:1004F0005E605E6835435D609D6825F400659D60C3
:100500009D68284398609D6825F0706098609D689C
:1005100029439960986820F040559D6099680A4386
:100520009A60986820F002059D609868A169626AE7
:1005300040EA41059D60002A28D1586820F40061F6
:100540005960DD6A206AE269616925F47005DD623F
:10055000DD6A013845EA0050D862986820F40070DE
:100560009860986840EA42229A60986820F4806215
:100570009A60986840EA81219960002201232264F0
:10058000104684F83C2084F83D30F8BD5D68A26ACE
:1005900045F400605860596821F460455D60586812
:1005A000013A40EA42315960CBE7FFF775FF7EE739
:1005B0000120F8BD08B572B6962002F09DF996208C
:1005C00002F09AF9F8E700BF036A23F00102F0B4E1
:1005D0000E688D680262026A446887690023C4F26B
:1005E000010327F0730722F00202984247EA060649
:1005F00042EA050206D049684460866141630262AE
:10060000F0BC7047CF688D694B6922F008023A430D
:1006100024F440742B4322F004021C43EBE700BF98
:10062000036A23F48072F0B40E688D680262026A75
:100630004468C7690023C4F2010327F0730722F45A
:100640000072984247EA060642EA052206D0496847
:100650004460C661C1630262F0BC7047CF684D69F7
:100660008B6922F4006224F4405442EA072244EAEF
:10067000051422F4806244EA0314E8E7036A23F4D1
:100680008052F0B40D688C680262066A4268C769DD
:100690000023C4F2010327F4E64726F400569842EB
:1006A00047EA052546EA043406D049684260C56138
:1006B00001640462F0BC70474B6922F4804242EA54
:1006C0008312F2E7704700BF036801201A6A00FA3C
:1006D00001F122EA01021A62186A0022C4F2010240
:1006E00001439342196205D01A6842F00101196072
:1006F00000207047596C41F400405864F4E700BF93
:10070000704700BF036801201A6A00FA01F122EA6B
:1007100001021A62186A0022C4F2010201439342E4
:10072000196205D01A6842F0010119600020704773
:10073000596C41F400405864F4E700BF0023C4F250
:100740000103984230B402683DD0B0F1804F2CD004
:100750004FF48064C4F20004A04226D04FF400633A
:10076000C4F20003984220D04FF44064C4F2000465
:10077000A0421AD04FF48043C4F20103984218D02B
:100780004FF48844C4F20104A04212D04FF49043C5
:10079000C4F2010398420CD08C6809680260C462FC
:1007A00081620122426130BC70474D6822F07002C4
:1007B0002A43CD688C680B6822F44071294301609C
:1007C000C4628362EDE74C68CB6822F07002144388
:1007D00024F44074234303608A68C2620B68836216
:1007E00009690163DDE700BF10B5044690B190F8D8
:1007F000393063B12146022251F8040B84F83920C4
:10080000FFF79CFF012084F83900002010BDFFF79E
:1008100077FFEFE7012010BD10B5044690B190F8C6
:10082000393063B12146022251F8040B84F8392093
:10083000FFF784FF012084F83900002010BDFFF786
:1008400041FFEFE7012010BD036A23F01002F0B46E
:100850000E688D680262026A446887690023C4F2E8
:10086000010327F4E64722F02002984247EA0626D1
:1008700042EA051206D049684460866181630262DB
:10088000F0BC7047CF684D698B6922F0800224F478
:10089000406442EA071244EA850422F0400244EA36
:1008A0008304E8E738B590F83830012B04460D464C
:1008B00028D00120022184F8380084F839100C2A4D
:1008C00019D8DFE802F00718181834181818471854
:1008D0001818210020682946FFF776FE23682A6948
:1008E000996941F008009861996921F004009861C4
:1008F00099690A439A610020012384F8393084F809
:10090000380038BD022038BD20682946FFF7B6FE02
:1009100023682869DA6942F40061D961DA6922F44E
:100920008061D961DA6942EA0020D861E3E7206892
:100930002946FFF789FF23682869996941F4006215
:100940009A61996921F480629A61996941EA00206B
:100950009861D0E720682946FFF762FE23682A697C
:10096000D96941F00800D861D96921F00400D86143
:10097000D9690A43DA61BEE74FF46D43CEF2000352
:10098000F0B49F689A68B2F1006F3B4604D0103013
:1009900043F82010F0BC70474FF0005453F8045B4C
:1009A00007F5CA7725601A46251D52F8046B666064
:1009B0005C68131D6C602C1DBB42F4D14FF46D427A
:1009C000CEF200024FF000539360E0E7F8B5036801
:1009D0000446D80744D54FF46052C4F2020291682D
:1009E00001F00C00042800F03781916801F00C0040
:1009F000082800F02D8143F60203C4F2020300250B
:100A00001D7000F005FD4FF460550646C4F2020566
:100A100006E000F0FDFC831BB3F5FA7F00F2F280E4
:100A200029688B03F5D443F602062079C4F2020646
:100A30004FF4605530706268012A00F0978100F031
:100A4000E7FCC4F20205064606E000F0E1FC811B6B
:100A5000B1F5FA7F00F2D6802B689903F5D42368AC
:100A60009A073BD54FF46050C4F20200816811F040
:100A70000C0F00F0CD80826802F00C01082900F014
:100A8000C380E668002E00F00B810025C4F24725E4
:100A90000120286000F0BCFC4FF460550646C4F20B
:100AA000020505E000F0B4FC831B642B00F2AA8071
:100AB0002A684FF460539207C4F20203F2D5196812
:100AC000F82090FAA0F2B2FA82F02269C0B202FADB
:100AD00000F221F0F8010A431A602368190726D4AE
:100AE000580741D4A16901B34FF46056C4F202061D
:100AF000B26802F00C00082800F0BA804FF06005E0
:100B0000C4F247254FF0000302292B6000F0DE807D
:100B100000F07EFC3446054604E000F079FC421B00
:100B2000642A6FD821688B01F7D40020F8BD66696C
:100B3000002E00F09F804FF46865C4F24725012025
:100B4000286000F065FC4FF460550646C4F20205CB
:100B500004E000F05DFC801B642853D86B6F9A079B
:100B6000F7D523685807BDD54FF46056C4F2020686
:100B70004FF4E045326CC4F2000542F0805131641C
:100B8000286840F480732B6000F042FC064604E0C5
:100B900000F03EFC811B642934D82A68D105F7D5C2
:100BA00043F67005C4F2020500262E7000F030FCFA
:100BB0004FF460550646C4F2020505E000F028FC3B
:100BC000831BB3F5167F1DD8296F8A07F6D443F629
:100BD0007000237AC4F202004FF460550370A268DB
:100BE000012A00F0D48000F013FCC4F2020506468E
:100BF000296F88077FF576AF00F00AFC801BB0F5FF
:100C0000167FF5D90320F8BD406840023FF539AFA3
:100C10004FF46052C4F202021068810702D5E16805
:100C2000012925D14FF46052C4F20202F825106860
:100C300095FAA5F1B1FA81F52169EDB201FA05F154
:100C400020F0F8000143116019077FF549AF6EE706
:100C5000526851027FF5CFAE4FF46051C4F20201E9
:100C6000086882037FF5FCAE6268012A3FF4F8AEA3
:100C70000120F8BD4FF46863C4F247234FF4605578
:100C80001E6000F0C5FBC4F20205064604E000F059
:100C9000BFFB811B6429B5D86A6F9307F7D460E75F
:100CA0000023C4F247234FF460551E6000F0B0FBF0
:100CB000C4F20205064604E000F0AAFB811B642989
:100CC000A0D82A689007F7D4236807E700F0A0FBB4
:100CD000074604E000F09CFBC01B642892D83068F3
:100CE0004FF460558101C4F20205F3D447F6C07E8B
:100CF0009EFAAEF7B7FA87FE4FF4403696FAA6F39F
:100D0000B3FA83F34FF0706191FAA1F2B2FA82F272
:100D1000D4F820C0E669A16A676AE06A4CEA060670
:100D20005FFA8EF44908DBB246F0005607FA04F485
:100D30000139344301FA03F1D2B2602300FA02F020
:100D40002143C4F2472341EA000401226C601A6087
:100D500000F05EFB044605E000F05AFB011B64292D
:100D60003FF650AF2B689A01F6D5DEE600F050FB57
:100D7000C4F20205064606E000F04AFB821BB2F50B
:100D8000FA7F3FF63FAF28688003F5D567E600F0AD
:100D90003FFBC4F2020506462B6F9B073FF5A2AE50
:100DA00000F036FB821BB2F5167FF5D92AE700BFAB
:100DB0004FF47053C4F202032DE9F0411A680C4657
:100DC00002F00F01A142054609D2E2B21A70196879
:100DD00001F00F03A34269D00120BDE8F081036850
:100DE000980709D54FF46052C4F20202A9689068CE
:100DF00020F0F00001439160D9072CD56B684FF4C7
:100E00006052C4F20202012B106800F09F80022B96
:100E100000F0A0808107DFD54FF46057C4F20207CD
:100E200041F28838BE6826F003010B43BB6000F036
:100E3000EFFA6A68012A064672D0022A7BD0B868A7
:100E400010F00C0F07D000F0E3FA811B4145F6D9F2
:100E50000320BDE8F0814FF47050C4F20200E2B20A
:100E60000270016801F00F03A342B5D12B685A0745
:100E700009D54FF46052C4F20202E968906820F488
:100E8000E050014391601B070AD54FF46053C4F250
:100E9000020328699A6822F4604141EAC000986020
:100EA0000F2000F03BFD0020BDE8F08103689907AA
:100EB00009D54FF46052C4F202028168906820F0B4
:100EC000F00001439160DA07D1D56B684FF46052AE
:100ED000C4F20202012B10685AD0022B55D08207AF
:100EE0007FF57AAF4FF46056C4F20206B46824F07E
:100EF000030747EA0301B16000F08AFA6B68012B2F
:100F0000044641F2883729D0022B32D0B26812F061
:100F10000C0FABD000F07CFA001BB842F6D997E773
:100F2000B96801F00C03042B95D000F071FA801B16
:100F30004045F5D98CE7BB6803F00C02082A8AD03B
:100F400000F066FA801B4045F5D981E782033FF542
:100F500063AF41E780013FF55FAF3DE7B06800F068
:100F60000C01042982D000F053FA031BBB42F5D9CF
:100F70006EE7B16801F00C03082B3FF477AF00F087
:100F800047FA021BBA42F4D962E78101AAD423E7E7
:100F90008003A7D420E700BF4FF46053C4F20203DC
:100FA00010B49A6802F00C00042807D008280AD070
:100FB0004FF41050C0F2F40010BC70474FF4905042
:100FC000C0F27A00F8E75C68596804F03F044FF417
:100FD000800292FAA2F0B0FA80F201F48001D0B25D
:100FE00031FA00F2596847F6C07393FAA3F2B2FAE5
:100FF00082F047F6C07320D14FF410520B40C0F27C
:10100000F402C1B223FA01F3B2FBF4F000FB03F1E6
:101010004FF46053C4F202034FF440305A6890FA20
:10102000A0F3B3FA83F002F44032C3B222FA03F021
:10103000421C5300B1FBF3F0BEE74FF490520B405B
:10104000C0B2C0F27A0223FA00F3B2FBF4F101FB62
:1010500003F1DDE708B5FFF79FFF4FF46053C4F2DB
:101060000203F0219B6891FAA1F2B2FA82F144F2F4
:10107000BC3203F0F003C9B223FA01F1C0F600025A
:1010800040F29C13525CC2F2000320FA02F0186096
:1010900008BD00BF08B5FFF7DDFF4FF46053C4F291
:1010A00002034FF4E052996892FAA2F3B3FA83F282
:1010B00044F2BC33D2B201F4E05121FA02F1C0F69D
:1010C00000035B5C20FA03F008BD00BF08B5FFF722
:1010D000C1FF4FF46053C4F202034FF460429968B9
:1010E00092FAA2F3B3FA83F244F2BC33D2B201F41F
:1010F000604121FA02F1C0F600035B5C20FA03F0C4
:1011000008BD00BF08B500F089F9BDE8084000F04F
:101110005BB900BF2DE9F00F00238AB09946C4F2F5
:101120000209CDF804904FF400674FF440684FF483
:101130008059C4F20207C4F20208C4F202094FF453
:10114000605C4FF480620397CDF81080CDF8149066
:101150004FF4A0544FF4C0574FF4E0584FF40059E7
:10116000E3464FF47055C4F2020CC4F20202C4F21A
:101170000204C4F20207C4F20208C4F202090E68B3
:101180000292C4F2010BC4F2010506940797CDF850
:101190002080CDF82490CDF800C003E00133102B5F
:1011A00000F0B380012202FA03F202EA060494423C
:1011B000F4D14A68022A00F09080122A00F08D8053
:1011C0004FEA430C4FF00308D0F8009008FA0CF7F0
:1011D0006FEA070802F0030707FA0CF708EA0909A3
:1011E00049EA0709571E012FC0F800905FD9112A5C
:1011F0005DD0122A5BD08F68D0F80C9007FA0CFCF7
:1012000008EA090848EA0C0712F0805FC760C5D0F9
:10121000DDF80080D8F844909F0849F4804C0237EC
:10122000C8F844C003F003085BF827904FEA880C25
:101230004FF00F0808FA0CF829EA0808DDF80490C6
:10124000484566D0DDF80890484500F09380DDF809
:101250000C90484500F09380DDF81090484500F070
:101260009380DDF81490484500F09380DDF81890E5
:10127000484500F09880DDF81C90484500F09880C3
:10128000DDF82090484500F08980DDF8249048453D
:1012900000F093804FF41059C4F2020948450CBF86
:1012A0004FF009094FF00A0909FA0CFC33E0D0F8B5
:1012B00008A0CF6808EA0A0A07FA0CF94AEA0907FF
:1012C0008760D0F80490C2F3001729EA040907FAEE
:1012D00003F749EA070747608DE74FEAD30A0AF1A7
:1012E000080C03F007074FEA870850F82C900F69A5
:1012F0004FF00F0A0AFA08FA29EA0A0907FA08F869
:1013000049EA080740F82C705AE70AB0BDE8F00F28
:1013100070474FF0000C4CEA08094BF82790D5F8BD
:1013200000C0E74307EA0C0C12F4803F18BF4CEAF8
:10133000040CC5F800C0D5F804C012F4003F07EA59
:101340000C0C18BF4CEA040CC5F804C0D5F808C052
:1013500012F4801F07EA0C0C18BF4CEA040CC5F805
:1013600008C0D5F80CC0920207EA0C0748BF274313
:10137000EF6013E74FF0010909FA0CFCCBE74FF0DF
:10138000020909FA0CFCC6E74FF0030909FA0CFC44
:10139000C1E74FF0040909FA0CFCBCE74FF007095C
:1013A00009FA0CFCB7E74FF0050909FA0CFCB2E7A3
:1013B0004FF0060909FA0CFCADE74FF0080909FAED
:1013C0000CFCA8E7704700BF08B54FF47053C4F297
:1013D000020303201A6842F4007119601A6842F48B
:1013E000806119601A6842F480711960FFF742F851
:1013F0000F2000F093FAFFF7E5FF002008BD00BFC3
:1014000040F23C33C2F200031A68501C1860704767
:1014100040F23C33C2F20003186870474FF4605347
:10142000C4F202039A6802F00C00042813D00828C2
:1014300016D04FF41052C0F2F4024FF46053C4F2CD
:10144000020319499868C0F30313C85C174B22FACA
:1014500000F21A6070474FF49052C0F27A02ECE743
:101460005868596810F4800F586801F03F0214BFA3
:101470004FF490534FF41053C0F388114FF4605061
:1014800014BFC0F27A03C0F2F403C4F20200B3FB4B
:10149000F2F303FB01F24168C1F30143581C410020
:1014A000B2FBF1F2C9E700BFCC4300089C01002069
:1014B0004FF46052C4F2020210B5116C4FF4E043D5
:1014C00041F08054C4F2000314641A6892B022F40C
:1014D000404141F4004401221C600692B0B90792D9
:1014E0004FF4800308210D930E9104234FF4A8724A
:1014F0000721022406A810930C940F921191FFF774
:1015000065FA034628B1002012B010BD05200790EF
:10151000E6E70F22019201A84FF48052214602947F
:10152000039304920593FFF743FCD0F1010038BF09
:101530000020E9E74FF46052C4F202024FF4E043A6
:10154000116C30B5C4F2000341F0805010641C6887
:1015500024F4404593B045F400421A60032110235F
:1015600001220024069109920A930E9304214FF45C
:10157000A8730722022506A80F9307940C950D94D3
:1015800010911192FFF722FA034610B1204613B0D2
:1015900030BD0F222946019201A84FF480520295D6
:1015A000039304920593FFF703FC011B4842484153
:1015B000EDE700BF08B50120FFF77AFF00B108BDD5
:1015C000FFF776FF0028FAD1FFF7B4FF0028F6D125
:1015D000FEE700BF38B54FF46D43CEF200034FF481
:1015E0006054D3F88820C4F2020442F47000C3F8B7
:1015F00088002168002041F001052560A060216875
:1016000043F2100221F0847525F48031C2F20042C9
:1016100021606260256840F29C1225F48025C2F2A8
:10162000000225604FF41051E0604FF00060C0F2FE
:10163000F40198601160FFF7C7FEFFF7BBFF236A54
:1016400043F008022262216A21F00800206238BDBE
:101650002DE9F0410568C7682A690669044622F445
:10166000405E4EEA0701E36980682961EF686269BC
:10167000064346EA020127F4164020F00C071943FE
:101680003943E9606E69A06926F4407242EA0001BC
:10169000B3F5004F4FF480536961C4F2010341D0A8
:1016A0009D4200F0B7804FF4A057C4F20107BD423D
:1016B00000F0B080FFF7EEFC666800EB800202EB02
:1016C0008200B10048F21F56B0FBF1F3C5F2EB16F1
:1016D000A6FB03277A091701FFF7DCFC616800EB22
:1016E00080008B0000EB8002B2FBF3F8FFF7D2FC26
:1016F000616800EB800000EB80028B00B2FBF3F12D
:10170000A6FB01025309642000FB138C4FEA0C1E58
:101710000EF13208A6FB0816C6F343163743AF6036
:10172000BDE8F0819D423DD04FF4A057C4F20107BF
:10173000BD4237D0FFF7AEFC616800EB800202EBE0
:1017400082004B0048F21F56B0FBF3F7C5F2EB16D0
:10175000A6FB07014A091701FFF79CFC636800EB31
:1017600080005A0000EB8001B1FBF2F8FFF792FC19
:10177000636800EB800000EB80015A00B1FBF2F3DC
:10178000A6FB03106422410902FB118C4FEA0C18DE
:1017900008F13208A6FB0826C6F343163743AF60AC
:1017A000BDE8F081FFF792FC676800EB80037900E9
:1017B00003EB830048F21F56B0FBF1F2C5F2EB16C3
:1017C000A6FB02177B091F01FFF780FC616800EB95
:1017D00080004B0000EB8002B2FBF3F8FFF776FCD1
:1017E000616800EB800000EB80024B00B2FBF3F17C
:1017F000A6FB01204309642202FB138C4FEA0C185C
:1018000008F13208A6FB0836C6F343163743AF602B
:10181000BDE8F081FFF75AFC666800EB800707EB34
:101820008701B20048F21F56B1FBF2F3C5F2EB1686
:10183000A6FB03304709FFF749FC616800EB800213
:101840008B0002EB8200B0FBF3F8FFF73FFC61680E
:1018500000EB800202EB82008B00B0FBF3F1A6FBF1
:101860000102500964233F0103FB108C4EE700BFC7
:10187000704700BF10B5044628B390F83930FBB16B
:101880002068022284F83920C16821F40053C36023
:101890002046FFF7DDFE2068026922F490410161D5
:1018A000436923F02A024261C168002341F40052D7
:1018B0000121C26084F83A30184684F8391010BD0E
:1018C000FFF7D6FFDCE7012010BD00BF70B5114C5B
:1018D0002368DA68910715D4D9684A0709D56FF0EB
:1018E00004050D4E1D615D6A3268A81AB0F57A7F55
:1018F00000D270BDFFF784FD2368356005F57A7569
:101900009D6370BD6FF00200186100F0FBFF23685B
:10191000E2E700BF780500204003002038B54FF40F
:101920006053C4F2020340F278541A6C42F008008B
:101930001864196A41F008051D621A6A22F008004D
:101940001862FFF76BFD40F29C13C2F200034DF6E4
:1019500083611D68C4F21B31A1FB0512C2F20004B1
:10196000900C4FF4406300254FF0FF32411EC4F24B
:1019700000032046E260236061602561A560656127
:10198000FEF74AFF41F6CD013220C0F60001FEF716
:10199000F3FF4FF46140CEF200004FF48023436028
:1019A00029462046FEF790FE04212046FEF78CFED5
:1019B0002368596A01F57A729A63D86840F2403216
:1019C000C2F2000240F00400D8601160284638BD21
:1019D000036804201A6A00FA01F122EA01021A627D
:1019E0001A6A11431962586C40F4004159641A682C
:1019F00042F0010018600020704700BF7047704738
:101A0000026E406E101A18BF012070470120704707
:101A100010B5426EC16D0346501C5866885C9A6EC4
:101A20005C6E013AB4FBF2F102FB11425A6610BD42
:101A3000024682B0086849686B4603C3481011F03B
:101A4000010F18BF1158009B18BFCB58104402B0AB
:101A50001847000010B50B4B0360002104460A46EE
:101A600000F09AFE00210122204600F095FE04F1CC
:101A70006C0000F0F7FA04F15C0000F0F3FA204685
:101A800010BD00BFE843000810B5044601F06FF830
:101A9000204610BD10B5044601F069F8204610BD7F
:101AA00010B50446FFF7D6FF204601F060F8204647
:101AB00010BD38B50446251D284600F01BFED8B1E0
:101AC000226F636F9A4210D0636FE26E591C616798
:101AD000D15CA36F606F013BB0FBF3F203FB120319
:101AE0006367284600F0F0FDE5E72046002101226B
:101AF000BDE8384000F050BE38BD000073B5044664
:101B00001D46069E00F000FE2046114B40F85C3B4F
:101B1000294600F0B7FA06FB05F104F16C0000F06D
:101B2000B1FA00220B4B009301926B4603CB0A4B98
:101B3000A0622262201D6462E162A363012200F0C0
:101B400051FD2046E567C4F8806002B070BD00BF5B
:101B5000E8430008B51C0008311A000837B5051D18
:101B60000446284600F0C6FDE0B1204600210122CF
:101B700000F012FE2046FFF79CFF9CB100220A4BAA
:101B8000009301926B4603CB084BA1640121606472
:101B9000E26328460A462464636503B0BDE830402A
:101BA00000F020BD03B030BDB31A0008311A0008A0
:101BB0004368026810B55C1C4460D154C368416836
:101BC000013BB1FBF3F203FB1213436010BD38B5C8
:101BD00005460C466C30C9B2FFF7EAFF2846FFF70E
:101BE000BDFF204638BDF8B507460C4691B10E46FC
:101BF000354616F8011B07F16C0011B1FFF7D8FF4D
:101C0000F6E70A21FFF7D4FF2C1B3846FFF7A6FFA3
:101C1000601CF8BD0846F8BDF8B5064614460D46EA
:101C200071B17AB18F18BD4206D006F16C0015F87B
:101C3000011BFFF7BDFFF6E73046FFF78FFF01E01E
:101C40000846F8BD2046F8BD0EB42DE9F04185B038
:101C5000C26F02AFD31D23F0070307F12404ADEBDD
:101C6000030D54F8048B02AD06460021284601F00E
:101C70005EFC2246284641467C6002F081F8F36F04
:101C80009842024607D90090084909485D2200F0B1
:101C90009DFD002003E030462946FFF7BDFF0C37CD
:101CA000BD46BDE8F04103B0704700BF4A4400089C
:101CB0001044000838B5051D0446284600F010FD04
:101CC00038B1284600F0F4FCC1B204F15C00FFF723
:101CD0006FFF38BD10B5244C1421204600F0E0FA07
:101CE0002046224C40F2DC5100F064FB20461421D7
:101CF00000F0D6FA20461E4C40F2DC5100F05AFBB0
:101D00002046142100F0CCFA20461A4C40F2DC5157
:101D100000F050FB2046142100F0C2FA2046164C79
:101D200040F2DC5100F046FB2046142100F0B8FAE6
:101D30002046124C40F2DC5100F03CFB20461421BE
:101D400000F0AEFA20460E4C40F2DC5100F032FBBF
:101D50002046142100F0A4FA204640F2DC51BDE8F0
:101D6000104000F027BB00BF4403002024040020E3
:101D70001004002048040020E00300203804002064
:101D80000004002010B50C4B0C491C6809680C4875
:101D90004FF47A73FF225C4394FBF2F41C444B43F0
:101DA00093FBF2F101F57A7100F004FB214605483E
:101DB000BDE8104000F0FEBA34040020FC0300200F
:101DC00048040020E003002010B50C4B0C491C68AF
:101DD00009680C484FF47A73FF225C4394FBF2F4D9
:101DE0001C444B4393FBF2F101F57A7100F0E2FAE7
:101DF00021460548BDE8104000F0DCBAF0030020A1
:101E00005C040020380400200004002030B5224883
:101E1000224D234C85B0052100F048FA21480621C7
:101E200000F044FA2048002100F03AF91F48072149
:101E300000F03CFA1E48012100F032F91D4818213B
:101E400000F034FA1C48192100F030FA1B48162122
:101E500000F02CFA1A48272100F028FA0422002367
:101E60008DE80C0028464FF480730B210C22FFF7FD
:101E700045FE2846134D1449224600F083FE03AA6E
:101E80002846124901F052F828461149224600F02E
:101E900079FE05B030BD00BF440300205C03002084
:101EA0009401002024040020F403002010040020EA
:101EB0005403002048040020E003002038040020E0
:101EC0000004002020040020551A0008494400089E
:101ED000912C00081FB5084B08491A68084B09489F
:101EE0001B6802938DE80C0003931346FFF7ACFECA
:101EF00005B05DF804FB00BFFC030020AC44000803
:101F0000340400205C03002007B5074B07491B6819
:101F10000093074B07481A68074B1B68FFF794FEAE
:101F200003B05DF804FB00BFA0010020C844000816
:101F30005C0400205C030020F003002038B5334C23
:101F40002378014622461BB93C285ED101235BE081
:101F5000012B06D1632801D1022355E00023137021
:101F600038BD022B0BD16D2801D103234CE0612831
:101F700001D1042348E06328F0D1052344E0032B7A
:101F80001AD1234D2B6853F80C3C052B1CD93E2845
:101F9000E4D1284600F0EAFE2B681A781D4B28464B
:101FA0001A6000F0E3FE2B68DA781B4B1A60FFF72B
:101FB000E9FEFFF78FFF20E0052B20D1144D2B68A1
:101FC00053F80C3C022B04D81148BDE8384000F00F
:101FD00068BF3E28C2D1284600F0C8FE2B681A7898
:101FE0000E4B28461A6000F0C1FE2B685A780C4B45
:101FF0001A60FFF7E9FEFFF787FF284600E0044874
:10200000084900F011FF0023237038BD5804002058
:1020100020040020FC030020340400205C04002085
:10202000F00300204944000808B50648FFF7E8FC23
:10203000002806DD0348FFF7EBFCC0B2FFF77EFF88
:10204000F3E708BD5C03002008B5FFF743FE044832
:102050004FF4614100F098FBFFF7E6FFFCE700BF9B
:102060005C03002010B50446006808B100F08FFD45
:10207000204610BD0346002141608160DA68006897
:1020800001F055BA38B5044608460D4600F081FD0A
:10209000E56020602046FFF7EDFF204638BD0000D8
:1020A000F8B50C4605461A49204600F0FFFB2860AB
:1020B000013026D01649204600F0C4FB15492C718A
:1020C0000B6803B1F8BD4FF46054C4F20204124A25
:1020D000676C2E6847F48077012510460D606764B1
:1020E0001660536093601361936153629362D3628D
:1020F0001363D3601562D3615361BDE8F840FEF706
:10210000CDB9064806492E2200F072FBD2E700BF87
:102110008448000860040020B4050020D44400086E
:10212000EC44000810B507EE901A0368314AF5EE4A
:10213000C07AF1EE10FA88B0136043D4B7EE007A9B
:10214000F4EE477AF1EE10FAC8BFF0EE477AD0ED20
:10215000026AB8EE660A90F9042060EE270A0023AE
:10216000BCEEE01A6024019480ED031A8DED021A92
:1021700003930493059306930793292A20D8DFE855
:1021800002F0242F31331F242435242F31331F1F15
:102190001F2437151F2F242F242F3133311F1F35B4
:1021A00037151F1F1F1F1F1F242F3133082401A99C
:1021B00010482246FEF776FB0E482146FFF708FC42
:1021C00008B010BDDFED0C7AC1E7002401A922465A
:1021D0000848FEF767FB21460648FEF793FAEFE74B
:1021E0000424F3E70824F1E70C24EFE70024DEE7FA
:1021F0000424DCE76404002000000000F8B58268D5
:10220000254C0368054623600E46002A42D007EE9F
:10221000902A90ED030AB8EE677AF8EE406AF7EE7E
:10222000000A86EE871AB4EE601AF1EE10FACCBFFF
:1022300010EE907A11EE107A196A41F211100840EE
:1022400040B9196A40F244420A401AB9186820F0AD
:1022500001011960FFF7E2F8104B0F481A684DF6BC
:102260008361C4F21B31A1FB02139A0C013A0023D3
:10227000711E62602361A360E160FEF7B5FA284633
:102280003946FFF74FFF2068AE60026842F0010355
:102290000360F8BD0027CFE7640400209C01002004
:1022A0004FF47A7303FB01F1FFF7A8BF38B50D4671
:1022B00004463E49284600F0F9FA431C206061D0EC
:1022C0000023C4F20103984244D0B0F1804F2AD0D9
:1022D0004FF48061C4F20001884244D14FF460534E
:1022E000C4F202031A6C42F0020119644FF49042E6
:1022F000C4F20102904207D14FF46050C4F20200D0
:10230000416C41F4802343642846284900F09AFA3E
:102310000023204644F620612571A360E360BDE8F8
:102320003840FFF76BBF4FF46053C4F202031A6CDE
:1023300042F0010119644FF48843C4F2010398424A
:10234000D4D14FF46050C4F20200426C42F4003128
:102350004164D9E74FF46053C4F202035A6C42F06F
:1023600001015964E7E74FF40062C4F200029042B1
:102370000DD14FF46053C4F20203186C40F0040115
:102380001964C1E70A4800F021FA206898E74FF481
:102390008043C4F201039842CDD14FF46050C4F29F
:1023A0000200416C41F480324264ADE7D44600083B
:1023B0005045000806EE901A90ED020AB8EEE67A53
:1023C000F8EE407AC7EE270A10EE901AFFF7AABE81
:1023D000F0B4104B0169426990F91970066885687C
:1023E000C468D9601A6100217A1C1E605D609C601F
:1023F000996109D090F91800421C08D00C225A614A
:102400000448F0BCFFF736BA08205861F8E7042109
:102410005961F5E7F805002070B5134D134C55F8D8
:10242000213020600E462BB1026852060ED400689F
:10243000810600D470BD0E4955F826000B680021B6
:10244000984720686FF02002026070BD0849184666
:102450000B680121984720686FF040020260006815
:102460008106E7D5E7E700BFA4040020F8050020B7
:10247000B00400204FF48050C4F201000021FFF7A7
:10248000CBBF00BF4FF48840C4F200000121FFF72A
:10249000C3BF00BF4FF4A050C4F201000221FFF7F8
:1024A000BBBF00BFF8B50E4604463E493046154650
:1024B00000F0FCF93C490746284600F0F7F90146D0
:1024C000384600F0E1F9431C206063D04FF480539C
:1024D000C4F20103984248D04FF48841C4F200018D
:1024E000884237D04FF4A052C4F20102904209D181
:1024F0004FF46050C4F202000222436C43F020010A
:10250000416462602749304600F09CF9284626491C
:1025100000F098F9701C03D03046012100F098FAC1
:10252000691C03D02846012100F092FA00204FF4E4
:102530001653E06020616061A360267665762046D0
:10254000FFF746FF4FF488412268C4F200018A4237
:1025500016D0F8BD4FF46050C4F202000122036CA3
:1025600043F4003101646260CCE74FF46050C4F280
:1025700002000022436C43F0100141646260C1E735
:102580000A4B0B4821461C2201241C60BDE8F84080
:1025900000F0A7BF07480849502200F029F9206839
:1025A00094E700BF3C4800088C460008A0040020C7
:1025B0003406002074450008904500088160FFF74C
:1025C00007BF00BF10B440F2B04340F2A444C2F2CF
:1025D00000044068C2F2000344F82020196010BCD7
:1025E000704700BF03684FF4805070B5C4F201001B
:1025F0002B4C8342236040D04FF48845C4F2000541
:10260000AB4220D04FF4A050C4F20100834243D12A
:10261000244D4724DAB1DE68002938D146F0200085
:10262000D86066B230462946FEF7A6F94FF46143FA
:10263000760904F00704CEF20003012101FA04F444
:1026400043F8264070BD184D2624002AE3D1DA68ED
:10265000B1B922F02000D860DA6811061BD46009F5
:102660004FF4614304F00704CEF20003203001214F
:1026700001FA04F443F8204070BD0C4D2524C9E74D
:1026800022F08001D960DB689A06E8D570BD46F07B
:102690004002DA60C5E770BD00252C46BAE700BFEE
:1026A000F8050020952400088524000875240008FA
:1026B000026813689806FCD55068024BC1051A6081
:1026C000C80D7047F8050020026813681B06FCD58A
:1026D000C905024BC80D1A6050607047F80500200C
:1026E000026840F2F8531068C2F20003C0F34010D1
:1026F0001A607047026840F2F8531068C2F2000393
:10270000C0F3C0101A60704710B5044600F00EF810
:10271000014B2046236010BD08460008C1EBC101F3
:1027200000EB8100203000F005BA00BFF8B5154B72
:102730000025044603600E46456029468560C56055
:102740000561456185610577457700F120001746F1
:1027500000F0E6F9294604F13C0000F0E1F9251DFE
:102760004FF41653284631463A46A365FFF79AFEC2
:1027700042F21D712846C0F600012246FFF722FFF3
:102780002046F8BDF845000838B504460D4604302B
:10279000FFF714FFA56538BD38B5144605460A464F
:1027A00069B1C4EBC40005EB8000203000F0BEF935
:1027B000281D21460122BDE83840FFF713BF043031
:1027C0002146BDE83840FFF70DBF00BF0FB400B58C
:1027D00040F2042383B0C2F2000304AA186852F83E
:1027E000041BC068019201F075F8012000F018F890
:1027F00010B540F20423C2F2000382B00446186808
:102800000B4644F21061C0680092C0F600012246F7
:1028100000F0F2FD02B0BDE81040FDF7CBBE00BFF6
:1028200038B5074C23680546986800F029FD2068F4
:10283000C06800F025FD05B9FEE7FDF7BBFEFBE72C
:1028400004020020431C10B5044619D091F9003051
:10285000581C04D10FE011F90C3F5A1C0BD09C42BC
:10286000F9D12046896800F0C3F820460021BDE870
:10287000104000F0EDB80348BDE81040FFF7A6BFD8
:1028800010BD00BF44460008884208B50AD0421C6B
:1028900007D0013106D00448FFF798FF4FF0FF3012
:1028A00008BD084608BD00BF5846000808B5431CCF
:1028B0000DD091F900305A1C04D109E011F90C3FF8
:1028C0005A1C05D09842F9D14868411C00D008BD77
:1028D0000248FFF77BFF4FF0FF30F8E76C46000837
:1028E00038B5054600F0EEF8044600F0EBF8001BA2
:1028F000A842FAD338BD00BF4FF47A7303FB00F04F
:10290000FFF7EEBF70B500F001F90F4C0F4E2068D5
:1029100070B1056800F0D6F8281A00280CDC216890
:102920003268C8682060002AF2D088689047EEE7D5
:10293000BDE8704000F0E0B82368D3E90001BDE8CD
:10294000704000F0CDB800BFB4040020B8040020EF
:1029500008B5072812D8DFE800F016222F3C111125
:1029600011044FF46053C4F202034FF4E0501A6BA9
:1029700042F080011963C4F2020008BD1B48FFF752
:1029800025FF002008BD4FF46053C4F2020300206D
:102990001A6B42F001011963C4F2020008BD4FF442
:1029A0006053C4F202034FF480601A6B42F00201DC
:1029B0001963C4F2020008BD4FF46053C4F202036D
:1029C0004FF400601A6B42F004011963C4F2020074
:1029D00008BD4FF46053C4F202034FF440601A6B19
:1029E00042F008011963C4F2020008BD84490008DE
:1029F00030B5431C87B005460C461CD0C5F3031008
:102A0000FFF7A6FF04F00F020E4B53F8223005F03B
:102A10000F01012505FA01F5C4F302120293C4F374
:102A2000C314032301A90195039204930594FEF7AF
:102A300071FB07B030BD044804495922FFF7D8FEA6
:102A4000DCE700BF50490008A8490008BC4900085D
:102A5000421C38B504460D4617D0C4F30310FFF7E7
:102A600077FF04F00F014B00022D0BD90025C2683F
:102A7000032404FA03F122EA0104C460C3681D437D
:102A8000C56038BD05FA03F5F1E7034803497E2226
:102A9000FFF7AEFEE1E700BFA8490008BC49000807
:102AA000064B186800B17047012119604FF440626D
:102AB000034BC4F200021A60FEF730BFF804002096
:102AC000BC04002008B5054B186808B9FFF7E8FFFB
:102AD0004FF44061C4F20001486A08BDF8040020C8
:102AE00040F2BC43C2F2000319684863CA6842F06E
:102AF0000200C860704700BF40F2BC43C2F200034E
:102B00001868C26822F00201C160704740F2BC43FD
:102B1000C2F200036FF0020218680261704700BF42
:102B20000022426082610160704700BF00230160A3
:102B30004360704708B5036801460BB1984708BD6C
:102B4000406810B18A690831904708BD10B5002867
:102B500014BF04460124204600F0A4FC30B900F064
:102B600009F808B900F0C2FA8047F4E710BD00F098
:102B7000A1BC0000024B1868BFF35F8F704700BF15
:102B8000FC04002003460846194600F0B7BAFFF7D8
:102B9000EEBFFFF7DBBF0000006810B550F80C4C2B
:102BA0000448001B0144914202D2184600F0D6F9B5
:102BB00010BD00BFFCFFFF3F0068814207D350F803
:102BC0000C3C1844814294BF002001207047012032
:102BD0007047012A10B502D10A78027010BDBDE815
:102BE000104000F07EBC012A10B502D10A780270B4
:102BF00010BDBDE8104000F07FBC08B5521AFFF7C9
:102C0000E8FF08BD044B98421FBF0160091800236C
:102C1000836018BF0B73704700050020134B984268
:102C200010B5044602D9124800F098F9884203D939
:102C30004B00984238BF1C4604F11D03B3F5805F7A
:102C400004F10D000CD98C420AD9C3F30B0304F52F
:102C50008054E41A054B9C4228BF1C4604F10D0029
:102C6000FFF774FF00224460826010BDFCFFFF3F4D
:102C7000BC4A0008054A904206D08268511E002ACC
:102C8000816001DCFFF773BF704700BF00050020C3
:102C900013B50446006801A90C38FFF7EBFF204686
:102CA00002B010BD2DE9F74F066856F80C5CC2EB78
:102CB0000309A9440C466D1A56F8081C89450746B5
:102CC00092469846A5EB020517D856F8043C002B0F
:102CD00013DC55B1C24508D008EB04000AEB04012F
:102CE000304431442A46FFF77EFF386849460C38A5
:102CF000FFF788FF03B0BDE8F08F484601AAFFF751
:102D00008DFF834600F10C0624B130463968224617
:102D1000FFF75FFF55B104F10C003B6840440AEB3C
:102D20000401584419442A46FFF753FF386801A9A3
:102D30000C38FFF79FFF3E60D7E7000003680A4AA0
:102D4000934210B504460DD053F8043C002B04DD2B
:102D500000210A460B46FFF7A5FF23684FF0FF321C
:102D600043F8042C10BD00BF0C05002008B5036813
:102D700053F8043C002B01DBFFF7E0FF08BDF8B57A
:102D8000069C1E46234605460F46FFF78BFF2CB1D7
:102D90002868314638442246FFF71BFF2846F8BD15
:102DA0002DE9F3410768194B57F80C8C04460D4682
:102DB00041461646FFF7F0FE20462946FFF7FCFE87
:102DC000C8B957F8043C002B15DCEB1BB34205D304
:102DD000384629463246FFF7FCFE05E023B1384667
:102DE00029463246FFF7FFFE206831460C38FFF7D0
:102DF00009FF204606E000962046002142462B4669
:102E0000FFF7BDFF02B0BDE8F08100BF304B000806
:102E100038B5054608460C4600F091FF21460246AB
:102E20002846FFF7BDFF38BD08B5FFF7F1FF08BD25
:102E300070B5044600680B46104461681A46FFF7F7
:102E4000EDFE2268064600F10C0522B1284604F189
:102E50000C01FFF7BEFE30462168FFF7D3FE28467F
:102E600070BD37B50446006850F8082C91420B46F7
:102E700003D150F8042C002A11DD50F80C2D01A9C3
:102E800093422CBFC2EB0302C2EB0202FFF7D0FF5A
:102E90000546206801A90C38FFF7ECFE256003B059
:102EA00030BD036870B553F80C4C53F8082C01344E
:102EB000944205460E460DD853F8043C002B09DC1D
:102EC0002B6853F80C2C9E54286821460C38FFF7C9
:102ED00099FE70BD28462146FFF7C3FFF0E70000CA
:102EE00088422DE9F04105460C4601D10D4E15E012
:102EF00018B914B10C4800F02EF8671B00213846B1
:102F0000FFF78CFE00F10C0680462946304622462B
:102F1000FFF773FE40463946FFF774FE3046BDE8C2
:102F2000F08100BF0C0500206F4B000870B505460E
:102F300016460C4621B1084600F001FF211801E0B9
:102F40004FF0FF31204632464FF00003FFF7C8FF35
:102F50002860284670BD08B500F0C8F808B500F034
:102F6000C5F80000244B1A68D0075CBF01221A6024
:102F7000224B1A68D1075CBF01221A60204B1A68E5
:102F8000D2075CBF01221A601E4B1A68D0075CBFD3
:102F900001221A601C4B1A68D1075CBF01221A601B
:102FA0001A4B1A68D2075CBF01221A60184B1A68C4
:102FB000D0075CBF01221A60164B1A68D1075CBFAC
:102FC00001221A60144B1A68D2075CBF01221A60F2
:102FD000124B1A68D0075CBF01221A60104B1A68A6
:102FE000D1075CBF01221A600E4B1A68D2075CBF82
:102FF00001221A60704700BF3C0500203805002000
:1030000034050020300500202C0500202805002074
:1030100024050020200500201C05002018050020A4
:103020001405002010050020244B1A68D0075CBF4F
:1030300001221A60224B1A68D1075CBF01221A6074
:10304000204B1A68D2075CBF01221A601E4B1A6817
:10305000D0075CBF01221A601C4B1A68D1075CBF05
:1030600001221A601A4B1A68D2075CBF01221A604B
:10307000184B1A68D0075CBF01221A60164B1A68F9
:10308000D1075CBF01221A60144B1A68D2075CBFDB
:1030900001221A60124B1A68D0075CBF01221A6025
:1030A000104B1A68D1075CBF01221A600E4B1A68D8
:1030B000D2075CBF01221A60704700BF6C05002078
:1030C0006805002064050020600500205C050020E4
:1030D0005805002054050020500500204C05002014
:1030E00048050020440500204005002008B50620C2
:1030F00000F0C6FD012001F053F9000038B5054687
:1031000004480C46134620B1022029462246AFF35C
:10311000008038BD00000000014B1868704700BFF8
:10312000040200208A892DE9F041054610070C466B
:1031300057D44B68002B02DC0B6C002B18DDE66AC1
:10314000B6B102F48052002392B22F682B600AB10C
:10315000626D10E0216A28460123B047411C0246F7
:1031600009D12B683BB11D2B01D0162B47D12F6005
:103170000020BDE8F081A3895B0705D56368D21AFA
:10318000636B0BB1236CD21AE66A216A00232846CE
:10319000B047461CA38905D12A681AB11D2A01D05F
:1031A000162A19D100226260D9042269226004D54E
:1031B000421C01D12B6803B96065616B2F60002947
:1031C000D6D004F14403994202D0284600F0B8F961
:1031D00000206063BDE8F08143F04003A381BDE8B7
:1031E000F0810F69002FC3D093070E6808BF4B69A9
:1031F0000F6018BF0023C7EB06088B6012E0A3899D
:1032000043F04003A3814FF0FF30BDE8F081284632
:10321000216AA66A3A464346B0470028EFDD0744D4
:10322000C0EB0808B8F1000FF1DCA1E738B50B6975
:1032300005460C46DBB118B183690BB900F072F892
:103240000C4B9C4201D16C6808E00B4B9C4201D1B5
:10325000AC6803E0094B9C4208BFEC68B4F90C3041
:103260002BB128462146BDE83840FFF75BBF002060
:1032700038BD00BFCC4B0008EC4B00080C4C0008DC
:10328000014620B9044B0549186800F0C7B8044B43
:103290001868FFF7CBBF00BF304C00082D32000884
:1032A00004020020014900F0B9B800BF2D32000827
:1032B000002310B504460360436083608181436648
:1032C000C28103614361836119465C30082200F0CA
:1032D0002EF9054B6362054BA362054BE362054B78
:1032E0002462236310BD00BFB93C0008DB3C00082A
:1032F000133D0008373D000870B568234D1E5D433F
:103300000E4605F1740100F05FF9044640B100215A
:1033100080E842000C30A06005F1680200F007F977
:10332000204670BD836910B5044633BB8364C36413
:103330000365124B124A1B688262984204BF012344
:10334000836100F01FF86060204600F01BF8A06069
:10335000204600F017F80421E06000226068FFF7C3
:10336000A7FFA06809210122FFF7A2FFE068122150
:103370000222FFF79DFF0123A36110BD304C00081E
:10338000A5320008F8B51B4B1E68B369074613B990
:103390003046FFF7C7FF4836B4687368013B04D472
:1033A000B4F90C5075B16834F8E733682BB9384676
:1033B0000421FFF7A1FF306008B13668ECE70C2369
:1033C0003B60F8BD4FF6FF73E3810123A38165667F
:1033D0002560A560656025616561A56104F15C00FB
:1033E0002946082200F0A3F86563A563A564E56497
:1033F0002046F8BD304C00080EB403B5014603ABBF
:10340000054853F8042B0068019300F05BF902B003
:103410005DF804EB03B07047040200202DE9F84387
:103420008046894600F14804002694B1A568676883
:10343000013F0CD4AB89012B07D9B5F90E3001330C
:1034400003D040462946C84706436835F0E724685C
:10345000EBE73046BDE8F88370B50E4B0E4CE41A2E
:10346000A41000251E46A54204D056F825309847E2
:103470000135F8E700F096FF084C094BE41AA41058
:1034800000251E46A54204D056F825309847013540
:10349000F8E770BD08020020080200201802002092
:1034A00008020020024B0146186800F08DB800BFEA
:1034B00004020020024B0146186800F041B800BF2A
:1034C0000402002010B5C9B202449042034606D05F
:1034D0001C788C4200F10100F7D1184610BD002085
:1034E00010BD10B5431E0A44914204D011F8014B9F
:1034F00003F8014FF8E710BD814210B501EB02035C
:1035000001D3421E0BE09842FBD28118D21AD3425B
:1035100004D013F8014D01F8014DF8E710BD9942B0
:1035200004D011F8014B02F8014FF8E710BD024436
:103530000346934202D003F8011BFAE770470000EC
:1035400030B500293DD051F8042C0B1F1D49002A2D
:10355000B8BF9B180A680C4612B95A600B6030BDA0
:1035600093420DD219685818904201BF5A58521808
:103570001A6042685A60236030BD994203D80A46F7
:1035800051680029F9D1146815199D420AD11B68A8
:103590002344D0188842136013D108680344136091
:1035A0004B680DE002D90C23036030BD1C6818196C
:1035B000884204BF08684968596004BF0019186050
:1035C000536030BD7405002070B5CC1C24F003049A
:1035D00008340C2C38BF0C24002C064603DA0C23CC
:1035E0003360002070BD8C42F9D3204A1368104626
:1035F0001946A1B10A68121B0ED40B2A03D90A601E
:103600008B188C501FE08B420DBF5A684A685A6075
:10361000026018BF0B4616E00B464968E9E7144DF7
:103620002B681BB9304600F0F3FA2860304621467B
:1036300000F0EEFA421C0346D1D0C51C25F003056C
:1036400085420AD11C6003F10B001A1D20F007000F
:10365000821A0AD05142995070BD3046E91A00F0E2
:10366000D7FA0130BBD02B46ECE770BD74050020C3
:10367000700500209368013B002B10B5936009DAB8
:103680009469A34202DBCBB20A2B03D1BDE8104000
:1036900000F084BB1368581C10601970C8B210BDCC
:1036A000F8B506460F461446D518AC4208D0304649
:1036B00014F8011B3A46FFF7DDFF431CF5D100E08B
:1036C0000020F8BD2DE9F0439DB00D4690460393D0
:1036D000064618B183690BB9FFF724FE754B9D426E
:1036E00001D1756808E0744B9D4201D1B56803E0D3
:1036F000724B9D4208BFF568AB891C070AD52B6940
:1037000043B10023099320238DF8293030238DF80D
:103710002A3041E03046294600F0A6FB0028F0D0D0
:103720004FF0FF30C2E0039A111D12680391002A86
:10373000BBBF524243F0020307920792B8BF049303
:10374000013423782E2B7BD0DFF88081217840460E
:103750000322FFF7B7FE38B1049AC8EB00004023FC
:103760008340134304930134217855488DF8281081
:10377000062204F10108FFF7A5FE002800F085806D
:10378000504B002B78D1039B073323F007030833FA
:103790000393099B3B44099343461C4613F8012BB2
:1037A0001AB9B4EB08090ED002E0252AF5D1F8E7E2
:1037B0003046294642464B46FFF772FF013070D033
:1037C000099B4B4409932378002B6AD000234FF0C8
:1037D000FF3204930793059206938DF853301A93A2
:1037E00004F101084446DFF8E890217848460522B4
:1037F000FFF768FE08F10108049B30B1C9EB000037
:103800000122824013430493ECE7D80644BF2022F0
:103810008DF85320190744BF2B228DF853202278AE
:103820002A2A80D0079923461C4601332278303A51
:10383000092A03D80A2000FB0121F5E7079180E758
:1038400063782A2B0AD1039B1A1D1B680392002B55
:10385000B8BF4FF0FF330234059375E7611C0022B7
:103860000C4601312378303B092B03D80A2000FB9A
:103870000232F5E7059267E703AB0093304604A9EF
:103880002A46114BAFF3008007E003AB00933046AC
:1038900004A92A460C4B00F0A1F8421C07467FF40D
:1038A00078AFAB895B063FF53BAF09981DB0BDE82B
:1038B000F08300BFCC4B0008EC4B00080C4C000818
:1038C0003E4C000800000000A13600083A4C0008F9
:1038D000344C000830B51346044A05460C461068BF
:1038E00029462246BDE83040FFF7ECBE0402002026
:1038F0002DE9F84391461F468A680B69DDF8208060
:103900009342B8BF1346C9F8003091F843200646E9
:103910000C4612B10133C9F800302368990642BF42
:10392000D9F800300233C9F80030256815F00605D3
:103930001CD094F843302268003318BF012392064C
:103940001FD5E1185A1C302081F84300224494F816
:10395000451082F84310023313E03046394604F133
:1039600019020123C047013007D00135E368D9F8B7
:1039700000209B1A9D42F0DBDBE74FF0FF30BDE8F3
:10398000F8833046394604F14302C0470130F4D091
:103990002268D9F80050E36802F00602042A08BF42
:1039A0005D1B2269A3680CBF25EAE57500259342DB
:1039B000C4BF9B1AED184FF00009A9450ADA30463A
:1039C000394604F11A020123C0470130D5D009F16C
:1039D0000109F2E70020BDE8F88300002DE9FF416E
:1039E0000C461746227E6E2A984606460A9B01F12F
:1039F000430100F0A98012D8632A23D00AD8002AF4
:103A000000F0B680582A40F0C58084F84520DFF8E1
:103A1000F8E151E0642A1ED0692A1CD0BAE0732A6A
:103A200000F0AA8009D86F2A2BD0702A40F0B2800B
:103A3000226842F02002226039E0752A21D0782ADB
:103A400035D0A7E01A68111D1960136884F8423058
:103A500004F14205A2E020681A6810F0800F03D03C
:103A6000101D1860136805E04506F9D5101D186093
:103A7000B2F90030002B3BDA2D225B4284F8432060
:103A800036E020681A6810F0800F03D0101D18600F
:103A9000136804E04006F9D5101D18601388227ED3
:103AA000DFF864E16F2A0CBF08220A221CE07822AA
:103AB000DFF858E184F845202268186812F0800F7A
:103AC00000F104051D6001D0036802E05506FBD536
:103AD0000388D00744BF42F0200222601BB922684D
:103AE00022F0200222601022002084F8430002E02D
:103AF000DFF814E10A226568A560002DA2BF2068E6
:103B000020F00400206003B965B10D46B3FBF2F06C
:103B100002FB10331EF8033005F8013D0346002870
:103B2000F4D100E00D46082A0BD12368DA0708D546
:103B3000236962689A42DEBF302305F8013C05F133
:103B4000FF35491B21612EE025681A68606915F070
:103B5000800F03D0151D1D60136808E015F0400F9D
:103B600002F104051D60136801D0188000E01860A0
:103B7000002323610D4616E01A68111D19601568AF
:103B8000626828460021FFF79DFC08B1401B606079
:103B9000636804E004F1420584F8422001232361B4
:103BA000002384F84330CDF800803046214603AA34
:103BB0003B46FFF79DFE013002D14FF0FF301FE082
:103BC000304639462A462369C0470130F5D023687C
:103BD0009B0705D4E068039B9842B8BF18460FE0E6
:103BE0000025E368039A9B1A9D42F3DA3046394672
:103BF00004F119020123C0470130DED00135F0E79E
:103C000004B0BDE8F08100BF454C0008564C0008E8
:103C100038B5064C0023054608462360FCF7F2FB46
:103C2000431C02D1236803B12B6038BD500600202D
:103C30001F2938B504460D4604D9162303604FF0FA
:103C4000FF3038BD426C12B152F821304BB92046DA
:103C500000F030F82A4601462046BDE8384000F022
:103C600017B8012B0AD0591C03D116230360012079
:103C700038BD002442F8254028469847002038BD2A
:103C8000024B01461868FFF7D3BF00BF04020020B3
:103C900038B5074C0023054608461146236000F05E
:103CA00077FB431C02D1236803B12B6038BD00BFF2
:103CB0005006002000F064BB10B50C46B1F90E10A0
:103CC00000F020FB0028ABBF636DA3891B1823F411
:103CD0008053ACBF6365A38110BD2DE9F0411D4643
:103CE0008B89DB0507460C46164605D5B1F90E1043
:103CF0000022022300F034F9A389B4F90E1023F452
:103D00008053A381384632462B46BDE8F04100F08F
:103D100099B810B50C46B1F90E1000F021F9431C0A
:103D2000A38915BF606523F4805343F48053A381B6
:103D300018BFA38110BDB1F90E1000F001B9034600
:103D400013F8012B002AFBD1181A0138704710B55F
:103D50009AB04FF40274009104916FF00041029107
:103D600005914FF6FF71ADF80E106946ADF80C40A5
:103D700000F0D6F9009B00221A701AB010BD0000A6
:103D800030B51346044A05460C46106829462246BB
:103D9000BDE83040FFF7DBBF0402002070B50D46E0
:103DA0001446064618B183690BB9FFF7BBFA224BDC
:103DB0009C4201D1746808E0204B9C4201D1B46858
:103DC00003E01F4B9C4208BFF468A369A360A3896A
:103DD0001A0709D523693BB123682069181A63695A
:103DE0009842EDB20FDB08E03046214600F03CF887
:103DF0000028F1D04FF0FF3070BD30462146FFF76C
:103E000015FA0028F6D1A368013BA36023685A1C69
:103E100022601D7063690130984204D0A389DB07DA
:103E200007D50A2D05D130462146FFF7FFF90028B6
:103E3000E0D1284670BD00BFCC4B0008EC4B000819
:103E40000C4C000838B5074C054600202060084699
:103E500011461A46FCF726FA431C02D1236803B127
:103E60002B6038BD50060020314B70B51D680646EA
:103E70000C4625B1AB6913B92846FFF753FA2D4B11
:103E80009C4201D16C6808E02B4B9C4201D1AC688C
:103E900003E02A4B9C4208BFEC68A3899AB2110741
:103EA0001DD4D50602D40922326038E0500712D55D
:103EB000616B41B104F14403994202D03046FFF7EF
:103EC0003FFB00236363A38923F02403A381002322
:103ED000636023692360A38943F00803A3812369F6
:103EE0004BB9A38903F42073B3F5007F03D03046A8
:103EF000214600F047F8A38913F0010205D0002203
:103F0000A26062695242A26103E0990758BF6269E8
:103F1000A26022694AB903F0800080B230B143F058
:103F20004003A3814FF0FF3070BD002070BD00BF83
:103F300004020020CC4B0008EC4B00080C4C00089D
:103F400038B5064C0023054608462360FCF794F973
:103F5000431C02D1236803B12B6038BD50060020FA
:103F600038B5074C054600202060084611461A4621
:103F7000FCF718FA431C02D1236803B12B6038BD4B
:103F800050060020F0B58B899D0791B006460C467F
:103F900026D4B1F90E10002909DAA38913F0800F95
:103FA0004FF0000514BF40274FF480670DE001AAD1
:103FB00000F0BAF90028F0DB029D05F47045A5F584
:103FC00000514D424D414FF4806730463946FFF76E
:103FD000FBFA60B9A3899A051DD443F00203A381BB
:103FE00004F14703236023610123636113E00B4B5A
:103FF000B362A389206043F08003A38120616761DD
:104000004DB13046B4F90E1000F0A0F918B1A389F3
:1040100043F00103A38111B0F0BD00BFA532000839
:10402000F8B5074615460E4621B91146BDE8F840D9
:10403000FFF7CABA1AB9FFF783FA2846F8BD00F0AD
:1040400095F9A8420ED238462946FFF7BDFA044634
:1040500050B131462A46FFF744FA38463146FFF759
:104060006FFA01E03046F8BD2046F8BD2DE9F04773
:104070008E68B34282460C469046994640D38A8960
:1040800012F4906F3AD0256809696F1A65690223A6
:1040900005EB450595FBF3F57B1C4B449D4238BF72
:1040A0001D4653050FD52946FFF78EFA064698B1EF
:1040B00021693A46FFF715FAA38923F4906343F088
:1040C0008003A38113E02A46FFF7AAFF064670B9D2
:1040D00050462169FFF734FA0C23CAF80030A3894F
:1040E00043F04003A3814FF0FF30BDE8F087266125
:1040F00065613E44ED1B2660A5604E46B14500D289
:104100004E46324620684146FFF7F6F9A3689B1BEE
:10411000A36023681E4426600020BDE8F0870000ED
:104120002DE9F0439DB0064603938B891C060D468E
:1041300090460CD50B6953B94021FFF745FA28602A
:10414000286110B90C233360CCE040236B6100235D
:10415000099320238DF8293030238DF82A304346E7
:104160001C4613F8012B1AB9B4EB08090FD002E072
:10417000252AF5D1F8E73046294642464B46FFF757
:1041800075FF013000F0A980099B4B440993237807
:10419000002B00F0A28000234FF0FF32049307931E
:1041A000059206938DF853301A9304F101084446A2
:1041B000DFF84891217848460522FFF783F908F196
:1041C0000108049B30B1C9EB000001228240134377
:1041D0000493ECE7D80644BF20228DF8532019073A
:1041E00044BF2B228DF8532022782A2A02D0079927
:1041F00023460EE0039A111D12680391002ABBBFEB
:10420000524243F0020307920792B8BF049301346D
:104210000AE01C4601332278303A092A03D80A20E2
:1042200000FB0121F5E7079123782E2B1AD1637843
:104230002A2B0AD1039B1A1D1B680392002BB8BFBF
:104240004FF0FF33023405930CE0611C00220C4652
:1042500001312378303B092B03D80A2000FB0232BE
:10426000F5E70592DFF89880217840460322FFF7B2
:1042700029F938B1049AC8EB000040238340134366
:104280000493013421781A488DF82810062204F18D
:104290000108FFF717F988B1164B33B9039B0733B1
:1042A00023F007030833039313E003AB0093304676
:1042B00004A92A46104BAFF3008007E003AB00933C
:1042C000304604A92A460C4BFFF788FB421C0746E0
:1042D00003D0099B3B44099341E7AB895B0601D4BA
:1042E000099801E04FF0FF301DB0BDE8F08300BF3A
:1042F0003E4C0008000000006D400008344C0008EF
:104300003A4C000838B5074C0546002020600846A6
:1043100011461A46FCF70CF8431C02D1236803B17E
:104320002B6038BD5006002038B5074C00230546E9
:10433000084611462360FCF749F8431C02D1236864
:1043400003B12B6038BD00BF5006002038B5064CC5
:104350000023054608462360FCF710F8431C02D1F1
:10436000236803B12B6038BD5006002051F8040CBF
:104370000028BEBF091851F8043CC0180438704723
:10438000024B58221A604FF0FF3070475006002051
:10439000024B58221A604FF0FF3070475006002041
:1043A000FEE700BFF8B500BFF8BC08BC9E467047EA
:1043B000F8B500BFF8BC08BC9E467047000000007E
:1043C00001020304010203040607080900000000BB
:1043D00000000000010203040607080900000000B5
:1043E0000000000000000000551A0008A11A000893
:1043F000011A00080D1A0008111A0008CF1B000846
:10440000E71B0008491C0008191C000800000000F8
:10441000257320256420627566666572206F766557
:1044200072777269746520286D61785F6275665F66
:1044300073697A653A2025642065786365656465EB
:10444000643A20256429210D0A00433A5C557365BE
:1044500072735C4D61726B5C446F63756D656E74F5
:10446000735C4769744875625C4D41565249435FBD
:104470004D61696E5C4669726D776172655C4D4134
:10448000565249435F4D61696E5C4275666665725E
:10449000656453657269616C5C42756666657265D8
:1044A0006453657269616C2E637070003C736D2596
:1044B00063256325632563256325633E003C7361A3
:1044C0002563256325633E003C73632563256325CF
:1044D000633E00006F626A2D3E61646320213D20CF
:1044E000284144434E616D65294E4300433A5C7751
:1044F0006F726B5C6D6265645C6769746875622D70
:104500006E65775C6C69627261726965735C6D621D
:1045100065645C746172676574735C68616C5C543B
:1045200041524745545F53544D5C544152474554A2
:104530005F4E55434C454F5F4634303152455C61C8
:104540006E616C6F67696E5F6170692E6300000059
:1045500050574D206572726F723A2070696E6F7598
:1045600074206D617070696E67206661696C656446
:104570002E0000006F626A2D3E7561727420213D2D
:104580002028554152544E616D65294E430000006C
:10459000433A5C776F726B5C6D6265645C676974EB
:1045A0006875622D6E65775C6C69627261726965AF
:1045B000735C6D6265645C746172676574735C687A
:1045C000616C5C5441524745545F53544D5C5441B7
:1045D000524745545F4E55434C454F5F463430314A
:1045E00052455C73657269616C5F6170692E63002E
:1045F0000000000000000000FD190008951A0008E6
:104600000000000000000000FF190008891A0008DF
:104610006D626564206173736572746174696F6E35
:10462000206661696C65643A2025732C2066696C8C
:10463000653A2025732C206C696E65202564200A5C
:1046400000000000636F756C64206E6F74207069E9
:104650006E6F75740000000070696E6D6170206D82
:1046600069732D6D617463680000000070696E6D80
:104670006170206E6F7420666F756E6420666F7255
:10468000207065726970686572616C0003000000DB
:1046900000440040930300000A00000000100140A5
:1046A000930300000C0000000014014013040000FC
:1046B00017000000001001409303000027000000D5
:1046C0000014014013040000FF000000FFFFFFFF83
:1046D0000000000000000000000000409300000007
:1046E00001000000000000409300000002000000F4
:1046F00000000040930000000300000000000040A4
:10470000930000000500000000000040930000003E
:104710000600000000040040130100000700000034
:10472000000001409300000008000000000001406C
:104730009300000009000000000001409300000009
:104740000A00000000000140930000000B00000080
:1047500000000140930000000F0000000000004036
:1047600093000000100000000000014093000000D2
:104770001100000000000140930000001300000041
:1047800000000040930000001400000000040040FE
:104790001301000015000000000400401301000098
:1047A0001600000000080040130100001700000080
:1047B000000800401301000018000000000800403D
:1047C0001301000019000000000800401301000060
:1047D0001A00000000000040930000001D000000CF
:1047E00000000140930000001E0000000000014096
:1047F000930000001F000000000001409300000033
:104800002600000000040040130100002700000003
:1048100000040040130100002800000000040040D4
:1048200013010000290000000004004013010000F3
:10483000FF000000FFFFFFFF00000000020000007B
:1048400000440040930300000900000000100140F4
:10485000930300000B00000000140140130400004B
:104860001600000000100140930300002600000025
:104870000014014013040000FF000000FFFFFFFFD1
:1048800000000000000000000020014005000000C2
:1048900001000000002001400500000002000000AF
:1048A000002001400500000003000000002001403E
:1048B0000500000004000000002001400500000089
:1048C0000500000000200140050000000600000077
:1048D000002001400500000007000000002001400A
:1048E000050000001000000000200140050000004D
:1048F0001100000000200140050000002000000021
:1049000000200140050000002100000000200140BF
:10491000050000002200000000200140050000000A
:1049200023000000002001400500000024000000DA
:10493000002001400500000025000000002001408B
:1049400005000000FF000000FFFFFFFF0000000067
:104950000000000001000000110000000200000043
:1049600012000000030000000000111000002110E0
:104970000000311000001210000022100000321060
:104980000000001050696E6D6170206572726F7268
:104990003A2077726F6E6720706F7274206E756D3B
:1049A0006265722E0000000070696E20213D202893
:1049B00050696E4E616D65294E430000433A5C7745
:1049C0006F726B5C6D6265645C6769746875622D9B
:1049D0006E65775C6C69627261726965735C6D6249
:1049E00065645C746172676574735C68616C5C5467
:1049F00041524745545F53544D5C544152474554CE
:104A00005F4E55434C454F5F4634303152455C70E4
:104A1000696E6D61702E630025733A205F5F706F61
:104A2000732028776869636820697320257A75295F
:104A3000203E20746869732D3E73697A65282920A9
:104A400028776869636820697320257A7529006270
:104A5000617369635F737472696E673A3A61743A3D
:104A6000205F5F6E2028776869636820697320255E
:104A70007A7529203E3D20746869732D3E73697AEA
:104A80006528292028776869636820697320257A5A
:104A900075290062617369635F737472696E673A46
:104AA0003A636F70790062617369635F73747269EE
:104AB0006E673A3A636F6D70617265006261736927
:104AC000635F737472696E673A3A5F535F637265CE
:104AD0006174650062617369635F737472696E67A4
:104AE0003A3A65726173650062617369635F7374FA
:104AF00072696E673A3A5F4D5F7265706C616365AB
:104B00005F6175780062617369635F737472696E67
:104B1000673A3A696E736572740062617369635FC4
:104B2000737472696E673A3A7265706C616365009E
:104B300062617369635F737472696E673A3A617335
:104B40007369676E0062617369635F737472696E23
:104B5000673A3A617070656E640062617369635FA1
:104B6000737472696E673A3A726573697A65006246
:104B7000617369635F737472696E673A3A5F535F1A
:104B8000636F6E737472756374206E756C6C206ED7
:104B90006F742076616C69640062617369635F732E
:104BA0007472696E673A3A62617369635F737472B3
:104BB000696E670062617369635F737472696E67BF
:104BC0003A3A7375627374720000000000000000CE
:104BD00000000000000000000000000000000000D5
:104BE00000000000000000000000000000000000C5
:104BF00000000000000000000000000000000000B5
:104C000000000000000000000000000000000000A4
:104C10000000000000000000000000000000000094
:104C20000000000000000000000000004300000041
:104C3000A4010020232D302B2000686C4C006566F9
:104C400067454647003031323334353637383941DD
:104C500042434445460030313233343536373839F3
:0C4C6000616263646566000000000000F3
:084C6C007CB5FF7F0100000090
:104C7400000000005806002000BD01057F00000070
:104C840000000000CC4B0008EC4B00080C4C000862
:104C94000000000000000000000000000000000010
:104CA4002C4C000800000000000000000000000080
:104CB40000000000000000000000000000000000F0
:104CC40000000000000000000000000000000000E0
:104CD40000000000000000000000000000000000D0
:104CE400A4010020B10100080D1E0008652F000872
:0C4CF400293000088D01000800000000BD
:0400000508000431BA
:00000001FF
