:020000040800F2
:100000000808002089010008E1010008E10100085A
:10001000E1010008E1010008E10100080000000022
:10002000000000000000000000000000E1010008E6
:10003000E101000800000000E1010008E101000802
:10004000E1010008E1010008E1010008E101000808
:10005000E1010008E1010008E1010008E1010008F8
:10006000E1010008E1010008E1010008E1010008E8
:10007000E1010008E1010008E1010008E1010008D8
:10008000E1010008E1010008E1010008E1010008C8
:10009000E1010008E1010008E1010008E1010008B8
:1000A000E1010008E1010008E1010008E1010008A8
:1000B000E1010008E1010008E1010008E101000898
:1000C000E1010008E1010008E1010008E101000888
:1000D000E1010008E1010008E1010008E101000878
:1000E000E1010008E1010008E1010008E101000868
:1000F000E1010008E1010008E1010008E101000858
:10010000E1010008E1010008E1010008E101000847
:10011000E1010008E1010008E1010008E101000837
:10012000E1010008E1010008E1010008E101000827
:10013000E1010008E1010008E1010008E101000817
:10014000E1010008E1010008E1010008E101000807
:10015000E1010008E1010008E1010008E1010008F7
:10016000E1010008E1010008E1010008E1010008E7
:10017000E1010008E1010008E1010008E1010008D7
:10018000E1010008E101000880B582B000AF0F4B2B
:100190007B600F4B3B6007E03B681A1D3A607A6852
:1001A000111D796012681A603B680A4A9342F3D3C2
:1001B00009480A494FF000028842B8BF40F8042BB2
:1001C000FADB00F053F80837BD4680BD880400080C
:1001D0000000002000000020000000200800002097
:1001E00080B400AFFEE700BF80B500AF0120012161
:1001F00000F05EF81A4B20221A60194B01221A7186
:10020000174B02225A71164B00229A71144B02228C
:10021000DA711448124900F069F81248202100F000
:100220000DF90420012100F043F80D4B4FF400526A
:100230001A600B4B00221A71094B02225A71084BAB
:1002400000229A71064B0222DA710748044900F035
:100250004DF805484FF4005100F0F0F880BD00BFA4
:1002600000000020000002400008024080B582B07B
:1002700000AFFFF7B9FF0C484FF4005100F0C4F88D
:1002800003463B603B68002B06D17B68002B0CBF0C
:1002900001230023DBB27B607B68DBB203482021B3
:1002A0001A4600F0D9F8E6E70008024000000240D4
:1002B00080B483B000AF78600B46FB70FB78002BF6
:1002C00006D00949084B1A6B7B6813430B6306E0A1
:1002D0000549054B1A6B7B68DB4313400B630C37F6
:1002E000BD465DF8047B70470038024080B487B09B
:1002F00000AF7860396000237B6100233B610023FD
:10030000FB6000237B6176E07B69012202FA03F344
:100310003B613B681A683B691340FB60FA683B69C4
:100320009A4265D17B681A687B695B001946032392
:100330008B40DB431A407B681A607B681A683B6815
:100340001B7919467B695B0001FA03F31A437B684A
:100350001A603B681B79012B03D03B681B79022B89
:100360002ED17B689A687B695B00194603238B401A
:10037000DB431A407B689A607B689A683B685B79CC
:1003800019467B695B0001FA03F31A437B689A60A4
:100390007B685A687B699BB2194601238B40DB431B
:1003A0001A407B685A607B685B683A6892791146AC
:1003B0007A6992B201FA02F292B21A437B685A60E9
:1003C0007B68DA687B699BB25B00032101FA03F367
:1003D000DB431A407B68DA607B68DA683B68DB796C
:1003E00019467B695B0001FA03F31A437B68DA6004
:1003F0007B6901337B617B690F2B85D91C37BD4637
:100400005DF8047B704700BF80B485B000AF7860B2
:100410000B467B800023FB737B681A697B88134043
:10042000002B02D00123FB7301E00023FB73FB7B55
:1004300018461437BD465DF8047B704780B483B01E
:1004400000AF78600B467B807B687A885A830C37D4
:10045000BD465DF8047B704780B483B000AF786020
:100460000B467B8013467B707B78002B03D07B6828
:100470007A881A8302E07B687A885A830C37BD46F3
:080480005DF8047B704700BF2A
:0400000508000000EF
:00000001FF
